:020000021000EC
:100000006FC0D2220000000000180118002801284B
:100010000228032800290129022903290429052986
:10002000062907290829002A012A022A032A042A64
:10003000052AA62A60D20300CE1E0100200300205C
:100040009E030020A80200207A0200201002002057
:1000500072200100B6200100D42101004C240100CF
:100060002A250100181D0100E41B01009A1C010053
:10007000321C0100562B01003005002048200100F1
:10008000382801006071030058730300D073030027
:1000900072230300A6230300826B02007C5C020033
:1000A000166B03006E2801000E2E030014E20100FF
:1000B000A2E20100FAE20100DE3301002A3401006D
:1000C00094320100FC9D0100B69801009AA701003E
:1000D0006AAB010016AF0100D88A0100768A0100E0
:1000E000608E0100248B01004C8A0100D08A01003F
:1000F000FE890100A88B0100008C0100B08B01007B
:10010000B48B01004E8C0100088C01003A8C010078
:100110005C91010064910100A48B0100AC8B010093
:100120004C8C010060910100FC8C0100D292010016
:1001300074BD0100F2BD010030BE010060A00100ED
:1001400078A00100B4A00100308401004E850100B8
:10015000C4850100E4520100864D01003A79010096
:10016000044E0100667401000EAF03003EA70300B9
:1001700048AC030064C403002AC30300AEC70300F5
:1001800066C70300A6C7030056C80300B095030066
:10019000E6C7030068BA03008EBA0300B6BA0300CC
:1001A000C6C8030024C10300BAC0030036C9030057
:1001B0004C980300E898030010990300B2980300DC
:1001C000EE4E03004E390300D43C0300AC3A03006A
:1001D000F4440300BE6B0300B46A0300E49503001B
:1001E000DC2C0100E2240300EE2D0300E62E0300C8
:1001F00048610300EC610300B463030064A40100E0
:10020000204E030098450300143703007C48030088
:10021000FE380300760C0020AC250300D2C7030093
:100220006AC70300A2C703009EC70300DC230100C6
:10023000B2A10100DAC70300C44F030092500300CB
:100240000C510300A6AC0300D6C70300DEC70300B1
:10025000085C0200E2C703007C110020181800208F
:1002600086AC03002CAE030000000000000000007C
:10027000000000000000000000000000000000007E
:100280006373B60082801C419105110523AEF5FE13
:10029000C5BFB7270020372700209387079713078C
:1002A000C7F06373F700828023A007009107D5BFD2
:1002B000411122C4B7C7004006C603A4C72023A625
:1002C00007200F10000011C199E5B7C7004023A611
:1002D0008720014545A893073500C207C183F19BDC
:1002E000C207C183130740036366F7023727002064
:1002F0000325C7AA37270020832647AA6391A602B1
:1003000037270020032747B369D3C207DD8D054592
:10031000029765BF37270020032587AAE1BF03574F
:1003200065002DE7035745006362F706B7260020F6
:100330003306F7402148938646AB6378C80283288A
:10034000050003D86600138687001D8F2A96611763
:100350002312E600232016012313060010C12312E6
:10036000F500130788FF2393E6002313B50083D518
:1003700066002105B387F5402393F600B7C7004018
:1003800023A68720B2402244410182800841BDB7A4
:10039000B7C7004003A8C72023A607200F100000FE
:1003A00001E523A607218280B727002003AEC7AA54
:1003B000B727002003A347AA8146F28763FC670A98
:1003C00083A80700636BF50A63E9A80A138787000F
:1003D0006362E50A03D66700216705076319E60033
:1003E00037260020034746A005072302E6A037264C
:1003F0000020130546AB83D54700035765002393C0
:100400000700130646AB2E97420741832313E500EE
:100410006387C70337250020032585AA6301F502FA
:1004200003D5660009ED83D7460023A016012107F6
:10043000BE95A1052392B6002313E600B687984324
:10044000630A6702B726002083A686AA6304D70240
:100450008356670085E283D64700835547001843DB
:10046000A106AE962392D70098C383576600A107D2
:100470002313F600B7C700402DB7BE86C6873DBF21
:10048000B7C7004003A7C72023A607200F1000000E
:1004900001C599C1814711E6B7C7004023A6E720EF
:1004A0008280B386F50003C80600B306F500850711
:1004B00023800601E317F6FEC5B737C70040832740
:1004C000C720232607200F10000019C191C111E693
:1004D00037C700402326F7208280910503A7C5FF78
:1004E00011057D16232EE5FEDDB737C700408327B3
:1004F000C720232607200F10000001C53307C500C1
:1005000011E637C700402326F72082800505A30F98
:10051000B5FEE31DE5FEF5B7B7C7004083A6C720CB
:1005200023A607200F10000081473307F5000307BB
:10053000070019E737C700402326D7203E85828071
:100540008507E5B7011126CA4AC8B7C7004006CEDD
:1005500022CC83A4C7202A892E8623A607200F1029
:100560000000131506019305F004418132C689335A
:100570002A8401C53246CA8521372285F240624469
:10058000B7C7004023A697204249D2440561828024
:10059000B7C7004003A7C72023A607200F100000FD
:1005A00001C599C1814711EAB7C7004023A6E720DA
:1005B000054582808507E309F6FE3308F500B3861A
:1005C000F5000348080083C60600E305D8FEB7C758
:1005D000004023A6E72001458280B7C7004003A75B
:1005E000C72023A607200F1000009307F6FFBE9533
:1005F0002A966317C500B7C7004023A6E72082806C
:10060000FD1583C715000505A30FF5FEDDB737C738
:1006100000408327C720232607200F10000001C5B4
:100620003307C50019E637C700402326F7200145E8
:10063000828005058346F5FFE397B6FEE31BE5FEE2
:1006400037C700402326F72005458280797126D2DE
:10065000B724002022D403A404B006D64AD04ECE3C
:1006600052CC56CA5AC85EC662C44DC8372A00204A
:1006700037290020B7290020814BB72A002037CB2B
:10068000C901130A4AB0130949AB9389C9B4835706
:10069000240099EF5C44639A0B0023A0F4B0032C70
:1006A000C4002285F5316284B9A823A6FB00C5BF2A
:1006B00083A78AAF82971C443307F5406376F50021
:1006C00003A749001D8F2A979306FB3763ECE606C4
:1006D000232809008355240003450400972001E0E6
:1006E000E78060C05C405844B1C70C4403A6490091
:1006F000AE97BE8663E4B70063E4C700B386C74025
:1007000014C4A28B3A8441F4B7270020938747ABE7
:10071000984B854663FCE6047D1798CBB250225473
:1007200092540259F249624AD24A424BB24B224C8D
:100730004561828063950B0023A0E4B08DB723A6AA
:10074000EB00B1BF03274A0219CB63EDA700338545
:10075000A740832709016374F5002328A900A28B11
:10076000404455B703A74900BA97D5B723A8070057
:1007700075B7B727002003A747B4411122C406C6A6
:100780003E8411C30297B727002083C767AF93F752
:10079000F70F99E3232204B4B2402244410182803E
:1007A00001114AC837290020832709AE06CE22CC82
:1007B00026CA4EC652C456C25AC081C78297232049
:1007C00009AE930709AEDC43B7240020938404AE3E
:1007D00091C38297832709AE6394071A37240020B8
:1007E000930784E183C777001547130484E1630905
:1007F000F718372A00209307CAB483C7C700130A23
:10080000CAB485E383475400858B81CF8347740046
:1008100019476312F70EA3020400EF00704CDC448A
:1008200082979C4491C38297B7240020B729002067
:10083000938744AB03A7C9AF03C61700938A44ABA1
:1008400083C744AB93961700BA9683D60600DDCED5
:1008500083C744AB63E4C70C832709AE238A04AA89
:1008600063900712834774001547630BF7108347A3
:10087000940081CF8347740093F7F70F99E7A3049F
:100880000400972003E0E780002EB727002083A70D
:1008900087AFFDC783274A0023A8FA00453BB72747
:1008A000002083A787B2E9CF8347740015476369A7
:1008B000F70CB7270020938787E583C7C700918B84
:1008C000E1E3B727002083C767AF93F7F70FCDEBBE
:1008D00083C61A0003A6C9AF63CED70A6244F240AA
:1008E000D2444249B249224A924A024B0561172337
:1008F00001E0670083F2834774001D47E313F7F2BA
:10090000A3020400EF00D03D9C4819BF850793F770
:10091000F70F238AF4AAE3E5C7F21DBF86073E97C7
:10092000835507002310070003C544ABB7270020F9
:1009300083A7C7AD13172500372B0020BA979C4318
:10094000231A0BAE829783574BAF03C744AB93C7B1
:10095000F7FF7D8D9317170003A7C9AF3E97835705
:1009600007005D8D2310A70083C744AB81C78507AF
:10097000238AF4AA03C744AB83C71A00E37EF7ECCB
:10098000F2406244D2444249B249224A924A024B5E
:1009900005618280139717003297035707006DF3A4
:1009A00085071DBF37C700408326C720B707FCFF58
:1009B000FD17F58F2326F7200F100000B727002022
:1009C000938747ABC84F832787262326D7206A05FE
:1009D00093C7F7FF99835D8D82800327851163009C
:1009E0000712411122C406C68347C5008345E504AA
:1009F0002A8493F7C70F2306F50083469700035612
:100A0000C70013958601618563F1C508635A050621
:100A10000345870093F6F607A304D700054693E63F
:100A200027006314C50093E617002306D4005C4337
:100A300089075CC3A30AB400032504112E864C4326
:100A400009053D3C8327841103465401D44303D751
:100A5000C700B296118FD4C32396E7008947A30D30
:100A6000F400B72700200347640383C767B16378A6
:100A7000F7048347C40093E707012306F40081A02D
:100A800093E717002306F40075B79376F60F635DBE
:100A9000050203458700854513E627006314B5006A
:100AA00013E617002306C400A30AD400A30407001A
:100AB0008547A30DF400832784119C43DDF3B240E6
:100AC000224401454101828093E717002306F40088
:100AD000A30AD400A3040700032504114C4309050D
:100AE00045328327841103465401D44303D7C700FA
:100AF000B296118FD4C32396E7008D475DBF05459D
:100B00008280B727002083A7C7DE411122C406C612
:100B1000858B2A84DDEB4165130525F5978002E07E
:100B2000E78080915DC18347A5002315F5008327E9
:100B30000412B5E72320A4122322A412854723110F
:100B4000F404232005008347640154412316F50073
:100B50000347D4002304E5000547A304E500372735
:100B60000020032707E31385170215811C437D1519
:100B70001375F50F9CC25C43DCC21C479CC65C47E6
:100B8000DCC61C4B9CCA5C4BDCCA1C4F9CCE5C4F29
:100B9000DCCE19CD9386060213070702C1BF832757
:100BA000441288C3835724042322A412850741BF1B
:100BB000B7270020938787CC03D7870005072394A6
:100BC000E700B2402244410182808347C4002309E8
:100BD0000400054593C747002306F400DDB78347AB
:100BE000850193F7E70FDDEB83479501C5EB0346DE
:100BF00025018346C50009CA3727002083456503C0
:100C0000034777B163E7E50013F7060149CB0147D6
:100C100009C6C18A0357651C81C68356A51C369731
:100C20003DCFB727002003D547B51307C712374676
:100C30000F00B335A702411113060624814622C4D2
:100C400026C206C67D543305A70297C003E0E7809D
:100C5000E00EB727002083C7B7B1B384A700B7273A
:100C6000002003A787D58327070963F387003E8405
:100C7000184375FBB727002083A787AF829781476A
:100C80006364A400B307A440B2402244B3B7970002
:100C900093C7170092443E854101828081473E857B
:100CA0008280B727002003A747E33C5BFDFF8280DB
:100CB000011126CAB7240020938784CC22CC03A438
:100CC000870906CE4AC84EC652C456C26307041CE2
:100CD00083570404A30F0400938484CC8507231056
:100CE000F4048347041422856382071CE92C2285BF
:100CF000976002E0E780E02A6311051A3729002097
:100D00001306C9B40355860083576408B7460F001D
:100D10009385F623B387A702938606240327040945
:100D2000230B0402032A46001309C9B4AE97B3D7B4
:100D3000D702636FF716B307F7408326C40823244E
:100D4000F408814AB387E600BE8963E4D70063E410
:100D50004701B38947418357040223283409A1CFAF
:100D6000835604040357440237460F002312D4026B
:100D70003387E640B387E7020357240213060624AD
:100D800081468145BA97C207C1833385A7022311E3
:100D9000F40297C003E0E78060FA11CD4E95B339B5
:100DA0003501AE99AA8763943A0163644501B3079C
:100DB00045412328F408372A002083278AAF8297E9
:100DC000AA8983278AAF8297E30D35FF83278AAFED
:100DD00083298408829763E2A90E3385A9407DC9DF
:100DE0008327C4086378F50EB7440F009384042466
:100DF000B3359502035A890003592402814652866D
:100E00003305950297C003E0E78040F3B309A900DA
:100E10003305490337460F001306062481468145F2
:100E200097C003E0E78080F115C1B3379502528681
:100E30008146B385B4023385A402BE9597C003E012
:100E4000E780C0EF3305A9402311A4023545972060
:100E500003E0E78040E30347B40085476313F706E8
:100E6000930700FD2307F400B727002003A547E000
:100E7000972001E0E78080AFB7270020938787E1C4
:100E80001547A383E700B727002083A747E3370769
:100E90001000860998C723A83707F2406244D2445D
:100EA0004249B249224A924A05618280952881B519
:100EB000B3064701B387F64049B583274900BE9979
:100EC00029BF930710FC2307F400B727002003A5D0
:100ED000C7DF79BF23AC0408B7E700E0370700108D
:100EE00023A0E7205DBFB727002083C787B59DC338
:100EF000B727002083A707D685C3B7270020238BF9
:100F000007AEB727002083A747E337071000D8C7ED
:100F10000547B8DB05458280177302E06700C3C44C
:100F2000797126D206D622D44AD04ECE52CC56CA99
:100F30005AC85EC68347550303447513AA843E947A
:100F40001374F40F9307400263F687001304B4FD93
:100F50001374F40F03AA841383AAC413A38B8412FB
:100F600022865285D68597C003E0E780A0D7058901
:100F700015E503CBD41201498149337B6403930BFC
:100F800050024A865285D68597C003E0E78080D517
:100F9000058915C5639169031374F90F238B8412B6
:100FA000B250225492540259F249624AD24A424BF8
:100FB000B24B456182808509E20993D989410509CF
:100FC000E31179FDE1BF8327850903560504797193
:100FD00093D60701BD8EC206C182358E1357764067
:100FE00093575640898B058B5D8F93573640918B75
:100FF0005D8F93571640A18B5D8F93171600C18BA1
:101000005D8F9317360093F707025D8F9317560095
:101010009355860093F707041E065D8F1376F60F2F
:10102000518F93D7554013D63540118A898BD18F74
:1010300013D67540D18F13D61540218AD18F1396C0
:101040001500418AD18F1396350013760602D18F91
:1010500013965500137606049E05D18F93F5F50F70
:10106000CD8FA20745465D8F3307C70222D42A845D
:1010700026D252CC56CA032A8413832AC4135AC8D0
:1010800006D636974207418393577740135557400A
:101090000989858BC98F135537401189C98F13551D
:1010A00017402189C98F131517004189C98F13155E
:1010B000370013750502C98F131557009355870024
:1010C000137505041E07C98F1377F70FD98F13D532
:1010D000354013D755401189098B498F13D5754079
:1010E000498F13D515402189498F139515004189E2
:1010F000498F1395350013750502498F13955500D7
:10110000137505049E05498F93F5F50F4D8F220742
:10111000D98FB387C7024AD04ECE5EC662C4B69797
:10112000C207C18313D7774013D557400989058B70
:10113000498F13D537401189498F13D5174021891D
:10114000498F139517004189498F139537001375FF
:101150000502498F1395570093D587001375050431
:101160009E07498F93F7F70FD98F13D5354013D7C3
:1011700055401189098B498F13D57540498F13D577
:1011800015402189498F139515004189498F139581
:10119000350013750502498F139555001375050425
:1011A0009E05498F93F5F50F4D8F2207D98FB38791
:1011B000C702130650025285D685B697BD8E93940A
:1011C0000601C18033F6C402137BF60F97C003E01B
:1011D000E78040B105890DED8347D412014981496B
:1011E000B3849702130C5002C1804A865285D6857B
:1011F00097C003E0E78000AF0589937BF90F11C525
:1012000063863403850993F9F90F0509E31F89FD06
:10121000230B6413B250225492540259F249624A89
:10122000D24A424BB24B224C456182805E8BCDB795
:101230000111B727002022CC03A487D826CA4AC8A8
:101240004EC606CEAA8413092500854915C083C75A
:10125000140003473400858B6304F700405CFDB73E
:101260001946930544004A85EFF08FB2E31835FF25
:101270002285F2406244D2444249B24905618280EB
:101280004111B727002022C403A487D826C24AC030
:1012900006C693042500054901E82285B240224490
:1012A0009244024941018280A6851305A40297D089
:1012B00002E0E780A0CEE30225FF405CF1BF4111D0
:1012C000B727002022C403A487D826C24AC006C676
:1012D00093042500054901E82285B2402244924446
:1012E000024941018280A6851305A40197D002E03E
:1012F000E780C0CAE30225FF405CF1BF011122CCA8
:10130000604126CA4AC84EC652C406CEAA841D4AA7
:10131000130965058549BC446364F400054581A84B
:1013200003C7D40083474400631B470503C78402F7
:101330006304F7000040C5B70347540083C7540552
:10134000E31AF7FE1946CA8513056400EFF04FA4AF
:10135000E31235FF0347C40083C79402E31CF7FC84
:101360000357E40083D7A402E316F7FC0145F240DB
:101370006244D2444249B249224A05618280E31B59
:10138000F7FA0347540083C75405E315F7FA1946E3
:10139000CA8513056400EFF0AF9FE31D35F9F9B777
:1013A0000111B727002022CC03A407D826CA06CEF5
:1013B0002AC42EC6854419E40145F2406244D24451
:1013C000056182808347910003471400858B630485
:1013D000F7000044CDB719469305A100130524007A
:1013E000EFF00F9BE31795FE0545C1BFB726002020
:1013F00003A7C6E001114AC81C5F4EC606CE9983FA
:1014000022CC26CA858B3689B7290020ADCF930719
:101410000006372400201CDF930784E183C76700A0
:1014200013070008930484E16319F70083A789E098
:101430009C4393F707042383F400834784E193F7E5
:10144000070489CFB727002083A787AF829788C872
:10145000834784E193F7F70B230CF4E083C7440040
:1014600093F707048DE38547A382F400B727002094
:1014700083A747E33707020098C7130700FC2382BE
:10148000E400D844F8D30327C9E01C5F9183858B1F
:1014900095C31C5F93E707011CDFB727002083A7D4
:1014A00047E3054723A20706B7270020938787E174
:1014B0002382E70083A789E0D8430583058B19C7FA
:1014C000D843759BD8C3D843799BD8C3F2406244B4
:1014D000D2444249B24905618280093F73002030FD
:1014E000B7270020B726002003A647E3938786E1AD
:1014F00003C786E1058B11C723820700A38207007B
:10150000828003C71700058B65FB785275F303C70C
:101510005700EDB7372700200328C7E0832788034B
:101520009583858BC1E311C683270803BD83230000
:10153000F60085CA8327C7E0985B46079357670183
:101540006356070093E707C0C207C18303970600ED
:10155000C207C18709C7BA970947B3C7E7022390F3
:10156000F6009DCD8345150085CDB72700209387D4
:1015700087E183C7670013879500894593F70704C0
:1015800085C33A95834705000547994593F6F706C5
:101590006398E600E207E187814563D30700B94518
:1015A0002E8582808545EDBF411122C406C63724B1
:1015B000002026C2032744E359E5AE877453FDFE9D
:1015C000B7240020938484E13E85B2852381040002
:1015D000971003E0E7800041B727002083A7C7E00A
:1015E000B70680009843558F98C3D857719BD8D7BA
:1015F000832744E3A3820400A3800400094798C31F
:10160000B7F700E003A707D16D9B23A8E7D003A796
:1016100007D15D9B23A8E7D073005010832644E3D5
:10162000B7270020938787E103C72700058B19E7B9
:1016300003C73700058B41C323820700B240224411
:101640009244410182808D47631FF500B727002037
:1016500083A7C7E0B70680009843558F98C3D85733
:10166000719BD8D765BF8547E31AF5FA5447817750
:10167000FD17F58F5CC70F100000032744E3B70781
:101680000200130600F81CC7B7270020938787E1E4
:101690002382C700B727002083A7C7E09C439D8310
:1016A000858B6397A700930760197CD354C7BDB798
:1016B0009307E01BDDBFF85225FB49B7411122C457
:1016C00037240020832744E306C6D8479316D70063
:1016D00063D3060298479316D70063DE06007D5752
:1016E000B8D737270020130747AB544F850654CF90
:1016F0003707040098C798470D83058B0DC337271C
:101700000020130787E18346270093E61600230194
:10171000D700930600F82302D700214798C79847BF
:10172000058B09CF37270020130787E18346170071
:1017300093E61600A300D700054798C7984709838A
:10174000058B09E798470583058B05CF37260020D1
:10175000930686E1A382060098470983058B75CB23
:10176000034786E113671700230CE6E0114798C78B
:10177000372700208326C7E0D856719B13671700D0
:10178000D8D698479316F70063D40602372700206F
:10179000930687CC03C64607130787CC418A71C2DC
:1017A00003C7460713670702238AE606416798C7FF
:1017B00098479316E70063D20602372700201307E5
:1017C00087E183464700E206E18663D50600854649
:1017D0002302D7003707020098C798479316C7001F
:1017E00063D3060237270020130787CC83465707A9
:1017F000858AC1CA8346570793E62600A30AD706FF
:101800003707080098C798479316B70063DF0602AA
:101810003707100098C7B727002083C787B595C73B
:10182000B7270020938787E183C777001547630EAA
:10183000F700B727002083A747DF91C382970327CC
:1018400044E3B7071F00BD075CC7B2402244410113
:10185000828003C7360013671700A381E60009479B
:1018600039B7834647070946BD8A6388C600834661
:1018700047070D46BD8AE39BC6F29146230AD70669
:1018800035B783465707918AA5DE8346570793E607
:101890008600ADB737270020B7260020138686E3E1
:1018A000130787E58347D7008345B601484AAE97BB
:1018B000FD8BB355F500A300F600A306F70085895C
:1018C00095E903471701814613080002B3F7E702C1
:1018D0000147B355E50085899378F70F89C963956A
:1018E000D700A30016018280850693F6F60F050740
:1018F000E31107FF8280B7270020938787E183C722
:10190000570093F7F70FD1EBB727002083A787AFD6
:10191000411122C44AC006C626C282973729002038
:10192000930789E58047130989E56302A406636884
:101930008504018DB7240020938784E383C7A70122
:1019400013545500938484E36363F404A13783C77D
:10195000A401032789009396570036971D8C2324F2
:10196000E900E375F4FE224403C51400B24092443A
:10197000024981454101172303E067008399B72796
:10198000002083A707B533848740229565B7B2400E
:10199000224492440249410182808280B72700207C
:1019A00083A787AF011122CC26CA52C406CE4AC8EB
:1019B0004EC68297B7240020938784E58047014A6A
:1019C0006301A406938484E563668506018D372749
:1019D0000020930787E383C7A70113545500137AA8
:1019E000F501130987E3636BF402B729002093899B
:1019F000C9B44D358346A90103A8840083A54900D5
:101A0000139756004297158C3A8663640701636406
:101A1000B7003306B74090C4E37DD4FC1604336AA4
:101A20004401F24062445285D2444249B249224ABA
:101A300005618280B727002083A707B533848740DC
:101A4000229571B7B727002003A747E389679387DB
:101A500007F47CD3B727002083A787E883A607096C
:101A6000139656006358060083A60709139666006E
:101A7000634406007453FDF282800000EFE07FCFE4
:101A80007300000000000000970200009382E22D26
:101A90000383020023800200630F0300F325103448
:101AA0002EC0970500009385A5FD73901534EFF0C7
:101AB000FFC07300203086DCEFF05FC0E65082800C
:041AC0000000000022
:101AC400B72700203727002083A7C7AA032747AAE0
:101AD40001456313F700828083D6670081E683D6CD
:101AE400470036959C43F5B7B727002083A547B038
:101AF40037270020938747B0138605222326C7AAD9
:101B040003D74700938785FFB72600204111BA9772
:101B1400056523A2F6AA06C61D059356370063740D
:101B2400E500930600203307D60037250020232440
:101B3400E5AA23A0E522E1162312D600231306000A
:101B44001CC3998FE1172312F700231307008D3F5D
:101B5400B240B7270020239DA7AA41018280B7275E
:101B640000203727002083A7C7AA832647AA014558
:101B74006393F600828003D7670011E703D7470019
:101B84006373E5003A859C43E5B7B7270020B72681
:101B9400002083A7C7AA03A646AA2A87B305B5408F
:101BA4006314F6003A8529A8938687009C43E36969
:101BB400D7FEE377F7FE2E85E3E4D5FEE3F2F5FEE8
:101BC400828023AC05FE1C4191E7010001000CC199
:101BD4008280BA8703A787FF6DFF23ACB7FE82809C
:101BE400411122C426C237C4004006C68324C4203F
:101BF400232604200F10000009E92326942015450C
:101C0400B24022449244410182800347E5FF930796
:101C1400F00F6306F700232694201145D5B797E00B
:101C2400FE1FE780E04F014523269420D1BF4111D8
:101C340026C24AC0B7C4004006C622C403A9C420B1
:101C440023A604200F10000009E923A62421B24092
:101C5400224492440249410182809565938505D0CE
:101C6400C98D2A842105C2054205C181418197E0BD
:101C7400FE1FE780E03C01CDFD5723200500231221
:101C840085002303F50023A624212105C9B723A633
:101C9400242101456DBF411126C2B7C7004006C6C5
:101CA40022C483A4C72023A607200F1000003727CF
:101CB4000020832507AB01448146AE8789E709E804
:101CC400A165592725A003C6E7FF631BA60215CC0F
:101CD400032684FF631DB4022328C7AA7D57232C3F
:101CE40004FE230FE4FEE9DFA16551262285B240FC
:101CF4002244B7C7004023A6972092444101828022
:101D040011E0BE8683A787FF55BF3E84E5BF23ACA1
:101D1400C6FEE9B7411126C24AC0B7C4004006C690
:101D240022C403A9C42023A604200F10000089E5BF
:101D340023A62421154515A0B727002083C757AB38
:101D44002A842E856375F400894763EE8700493D34
:101D5400B7C7004023A627210D45B2402244924430
:101D640002494101828083A785FF99E703C7E5FF04
:101D74009307F00F6308F700A535B7C7004023A603
:101D840027214DBF37250020238F85FE130505AB82
:101D94000D3DA1652285E12C014523A6242175BFB3
:101DA400B727002023A807AA8280B727002083A78B
:101DB40007B099E33E85828003D727006316B700F6
:101DC40003C70700E308A7FEDC47E5B7BDCD79717B
:101DD40022D406D626D24AD04ECE01444147B3D7A8
:101DE4008540858BB1CF1205314722953305E50235
:101DF400B727002003A907B48544B3948400C20420
:101E0400C180BE892A990327090011C70325490007
:101E14002EC60297B24531473304E40283A709B4BE
:101E24003E941C4489E72320090023220900B25070
:101E34002254A58D02599254F2492E85456182801F
:101E44000504E31EE4F88144DDB72E858280411148
:101E54001397050122C406C626C24AC041872E84B0
:101E6400635E07000D3D11C1A53BA1673D8C228532
:101E7400B24022449244024941018280EDD9AA87AA
:101E840001474146B356E440858A9DCA9207BA97F2
:101E9400B146B387D702B726002003A906B4854408
:101EA400B394E400C204C1803E998327090003254A
:101EB400490082972320090023220900258C45BF6D
:101EC4000507E311C7FC8144D5BF411126C2B7C73A
:101ED400004006C622C483A4C72023A607200F10EF
:101EE4000000B727002083A747B23724002013043B
:101EF400049491C782971C403E9508C031A0B7272F
:101F0400002083A787AFFDF71C4037470300130762
:101F1400D73FB387E70237A72600130737ECB24051
:101F2400BA971CC0B7C7004023A697200840224494
:101F3400924441018280797126D2B7C7004006D607
:101F440022D44AD04ECE52CC56CA5AC85EC662C4B7
:101F540083A4C72023A607200F10000005E123A6B1
:101F640097200945B250225492540259F249624AC8
:101F7400D24A424BB24B224C45618280B7270020A3
:101F840083A787AFBA8A368AB28B2E8BAA898297A7
:101F9400B727002003A707B43E890144B146C147CF
:101FA400330CD40233068701104241E6C1659385A0
:101FB40005F0414597E0FE1FE780800819EDB7273B
:101FC400002083A747B381C7814511458297B7C7CE
:101FD400004023A697202D4571B7B727002003A7FB
:101FE40007B021E723A0A7B023000500832709B485
:101FF4000547331787002326050023247501231181
:10200400E50023225501E29723A0370123A26701AB
:1020140023A4570163040A0023008A00B7C70040C1
:1020240023A6972001453DBF3E875C47F5FF48C77F
:1020340065BF0504E316F4F6B7C7004023A697204E
:1020440021450DB7B727002083A787B4411122C4C7
:1020540006C637240020130444AB89C782975C4822
:102064003E9548C84848B240224441018280B7C7DF
:10207400004083A6C72023A607200F10000037279F
:102084000020034757AB6372E5023726002013177D
:1020940015000325C6AF3A9503570500D98D2310C3
:1020A400B50023A6D7200145828023A6D7200D455D
:1020B4008280B7C7004083A6C72023A607200F103D
:1020C400000037270020034757AB6374E502372627
:1020D4000020131715000325C6AF93C5F5FF3A95E5
:1020E40003570500F98D2310B50023A6D720014519
:1020F400828023A6D7200D45828001114AC837C7A4
:10210400004006CE22CC26CA4EC652C40329C7209C
:10211400232607200F100000130705FF1377F70F7E
:10212400FD4763E1E70AB146B306D502B7270020AD
:1021340003A707B436971C43D1C7935445000544FD
:102144003D893315A400131405014180AE89268509
:10215400A285A1392A8A31C9A2852685993FB72744
:10216400002083A787AFB72400209384C4B4829748
:1021740083D784002A848146B38537031306006419
:10218400B3B7370313850532B335B500BE95EFA059
:102194007213B30785003E87D44063E4A70063E469
:1021A400D7003387D7402324EA00B7C7004023A6CB
:1021B40027210145F2406244D2444249B249224AAD
:1021C40005618280B7C7004023A627210945DDB7F2
:1021D400797126D252CCB7C4004006D622D44AD054
:1021E4004ECE56CA5AC85EC603AAC42023A60420EB
:1021F4000F100000B727002083C757AB6378F500A2
:10220400B727002083AB87AF63970B00B7C70040A5
:1022140023A6472199A0372900201309C9B4AE8AFF
:10222400032B490083558900B74736FE938707C8B7
:102234003E9BB387C5022A84B2898146B3B5C502E1
:1022440013850732B337F50013060064BE95EFA07B
:1022540072076370AB0223A644210145B250225495
:1022640092540259F249624AD24A424BB24B4561F6
:102274008280829B83558900AA8413060064B387F5
:1022840035038146B3B5350313850732B337F500FB
:10229400BE95EFA03203B3079500BE84032749001F
:1022A40063E4A70063E4E700B384E740D6852285AE
:1022B400ED3C01C904C5B7C7004023A64721054525
:1022C40071BF936504F0C205C181414597E0FE1FCB
:1022D400E78000D711E9B727002083A747B39DD72C
:1022E400A285114582971DB737270020832707B0A1
:1022F4008DE32320A7B085472326050004C52311B9
:10230400550123008500A300F5002322050065B7CD
:10231400BA87D84775FFC8C7F9BF79714ECEB7C71A
:10232400004006D622D426D24AD052CC56CA5AC825
:102334005EC662C466C26AC083A9C72023A60720FA
:102344000F10000025C141443689B28A2E8AAA841E
:10235400B14C372B0020054D130C0003B30B940331
:1023640003270BB45E971C43B9EF9375F400B315C0
:10237400BD0013554440C2055686C1811375F50F3F
:10238400813D31C183270BB4DE9784C323A2470167
:102394006304090023008900B7C7004023A637213E
:1023A400014521A023A637210945B2502254925455
:1023B4000259F249624AD24A424BB24B224C924CE5
:1023C400024D456182800504E31A84F9B7C70040D1
:1023D40023A637212145D1BF011122CC26CA4AC8E0
:1023E4004EC6B7C7004006CE03A9C7202A84AE89CB
:1023F400B28423A607200F100000D93B2285CE8586
:102404006D322A8405C5B727002083D547B5130646
:1024140000648146B3879502B3B5950213850732EC
:10242400B337F500BE95EFA0E26948C01335140038
:10243400F2406244B7C7004023A62721D244424950
:10244400B2490E0505618280011122CC4AC84EC6EC
:10245400B7C7004006CE26CA83A9C7202A892E847E
:1024640023A607200F1000008932AA8419C1231162
:102474000500A2854A853539B727002083C747ABB5
:1024840063992701B727002003D747AF598C239AB4
:1024940087AEB7C7004023A63721014591E019450F
:1024A400F2406244D2444249B2490561828001113A
:1024B40026CA4AC8B7C4004006CE22CC4EC603A9D9
:1024C400C42023A604200F1000009307F00263E643
:1024D400A704B1473304F502B729002083A709B440
:1024E400A2979C439DCB9377F5008545B395F50062
:1024F400C205C1811181893F83A709B40145A2970F
:1025040023A0070023A2070023A62421F24062444B
:10251400D2444249B24905618280B7C7004023A62C
:1025240027210945E5B7411126C206C622C4B7C70B
:10253400004083A4C72023A607200F100000EFF05B
:10254400DF8619E90145B2402244B7C7004023A6FB
:102554009720924441018280B727002083A787AF48
:1025640000458297B72700209387C7B46368A40205
:10257400D843B74636FE938606C83305A44036973B
:10258400E372E5FC13070064B335E50203D6870064
:1025940081463305E502EFA0E25275B7D8433A9479
:1025A400C1BF0111680006CE22CC26CAEF404140CB
:1025B400FD576309F50AB247CDC3B7270020B724F6
:1025C4000020938444AB1387C7B4944858431384BE
:1025D400C7B46386E602B727002083A787AF829734
:1025E400B247984863F3E7003E87B307A7003E85E8
:1025F400544063E4E70063E4D7003385D7403724CD
:102604000020930784E19C4F130484E199CBB727FE
:10261400002083A687E83707CDFF7D179C46F98FF6
:102624009CC609E5B727002003A507B5B7270020F6
:1026340083A787B2829719E51C4C85C3EF00D2208B
:10264400EFF0116B1C4C91CBB727002003A787E850
:10265400B70633001C47D58F1CC7F2406244D244EE
:1026640005618280B724002037240020938444AB82
:102674001304C4B494485840B727002083A787AFF5
:102684006393E60282975440B74736FE938707C8A0
:10269400B6973387A7003A856364F700E361D7F6FA
:1026A4003305D740A9BF829794485840B387A60002
:1026B4003E8563E4D700E3E4E7F43385E74081B77C
:1026C4004111B727002006C623A4A7B40295B2403F
:1026D400B727002023A6A7AC01454101828091477A
:1026E40063E9B700B72700208A05938707AEBE9534
:1026F40088C18280B727002023A2A7B411C5B727B9
:1027040000200547238BE7AE8280B727002023A053
:1027140007B0B727002023A407B4B727002023ACB1
:1027240007AE37250020B72700204111238B07AEC1
:102734005146B72700208145130505AE06C623A2DE
:1027440007B422C426C23724002097E0FE1FE78086
:10275400C0B2130544AB13068002814597E0FE1F07
:10276400E780A0B1EFF04FB8B727002083C797B137
:10277400130444AB854513D527008D8B3E958D47B7
:102784003305F5029947B724002039051375F50F71
:102794002301A4003305F5021305052497E0FE1F69
:1027A400E780008A23A0A4B449C1034624009947C2
:1027B40081453306F6021306062497E0FE1FE780E0
:1027C400C0AB83A704B403472400B7240020938735
:1027D40007240A0723AEF4ACBA9737270020232E28
:1027E400F7AEEFF0EFDBA9218347140083A6C4AD55
:1027F40037260100139727003697130606DD10C30A
:10280400138717001377F70F0A0737260100369747
:10281400130626E510C313873700890793F7F70FCC
:102824008A07A300E400B69790C3B24022449244BE
:102834004101828037270020130747AB83471700E5
:102844008346270063F0D702B726002083A6C6ADCF
:1028540013861700A300C70013972700369708C3F1
:102864003E8582809307F00FE5BF1C41638107100A
:1028740041777D8FB70600208947631BD70E035726
:1028840045007DC7411126C21946AA849305F00F5D
:10289400610506C622C497E0FE1FE78040B00547E5
:1028A4008D476300E50C9C4491C7D858994755CB94
:1028B400985C45CB372400201306C00381451305DB
:1028C40044B097E0FE1FE780409B1306C003A68533
:1028D400130544B097E0FE1FE7808093930744B04C
:1028E40003D7C70009E7130700102396E70003C7BF
:1028F400E70001E705472387E70003D7070101E75E
:102904006D472398E70003C7F70001E71547A3873E
:10291400E70003C7270101E705472389E70003C749
:10292400370109E703C7F700A389E70003C7470195
:1029340001E75547238AE70003C7640109E7130742
:10294400C003238BE7009C5791C78297B7270020C9
:10295400239EA7AAB72700207D57A386E7EE7533E9
:102964008147B240224492443E8541018280894796
:102974003E85828001114AC8372900208327C9B4C3
:1029840006CE22CC26CA52C456C24EC68297130A19
:102994000064B33545031309C9B4835A89008146D9
:1029A400568633054503EFA0E211B72700201387AD
:1029B40047AB004FAA84014563069402938947AB51
:1029C40033858440636E940003254900568681460E
:1029D400B335AA023305AA02EFA0C20E018D2695D3
:1029E40023AC9900F2406244D2444249B249224A9B
:1029F400924A05618280011122CC2E84B7D503004E
:102A04000A854146938585F106CEEFA02245180834
:102A140006043A94B7270020035504FF83D767B50B
:102A2400F2406244AA9737450F0013050524335535
:102A3400F50205618280B727002083D767B5514727
:102A44001D45637CF702794719456378F70213073C
:102A5400200315456373F7021307B0041145637E21
:102A6400F700130740060D456379F7001307600963
:102A740009456374F70013B5B70F8280011122CCA6
:102A840006CE2A842EC6EFF04FC4B245F240818DA3
:102A940033A5A502229562441375F50F0561828062
:102AA400011122CC06CE2A842EC6EFF00FC2B24505
:102AB400F240818D33A5A5022295624442054181ED
:102AC40005618280011122CC06CE2A842EC6EFF045
:102AD400CFBFB245F240818D33B5A5022295624441
:102AE40005618280B7270020138747B018572DC38C
:102AF400411122C426C24AC006C6138947B00297B0
:102B0400B7270020138747AB035787002A84938491
:102B140047AB0DCBBA876373A700AA87C207C183EB
:102B2400BA866373E400A286C206C182958F5147B8
:102B3400635AF7008327C90291C38297EF00623A70
:102B440023948400B2402244924402494101828089
:102B54008280011122CC3724002006CE26CA4AC81E
:102B64009307C4B483C7C70081CB0545F2406244D0
:102B7400D244424905618280B7240020938744B03F
:102B8400DC571309C4B4AA85938444B081C72AC608
:102B94008297B245B5C19C41E9DBDC41F9D783D7C3
:102BA4008500E1D783D7A500E9D341461305C4B412
:102BB40097D0FE1FE780C0650327C4B4B727002061
:102BC40023ACE7AE83C774018DE3035589009307F3
:102BD400805737460F003305F50213060624814655
:102BE4008145EF90326EA38BA400373501001305A5
:102BF4008597F93401459DBFB7270020938747ABDC
:102C040023AE0700B7070020938747732326F4B445
:102C1400B78732007D57938727A12324F900232205
:102C2400E90023060900B7C7004023A4E72669B7D3
:102C3400011122CC37240020930744B0884706CEE4
:102C440026CA4AC801E90545F2406244D2444249D1
:102C540005618280130444B05C58F5D7185C65D7CD
:102C64007000854582971844B247E30EF7FC03557C
:102C7400C4009305E004B724002097D0FE1FE7802A
:102C8400203C138744AB08D3938444AB4DDD0356F7
:102C9400C4009305F00F014997D0FE1FE780E05D63
:102CA4008347E4009050634DF900328597D0FE1FAE
:102CB400E7800047014523A0040223A2040269B768
:102CC4008355C4000844185CB3872503898105092A
:102CD4003E9508C20297E9B701114EC6B7290020F4
:102CE400938749B09C4726CA4AC852C406CE22CC10
:102CF40056C25AC02A8AAE843289638D071E9389CC
:102D040049B003A74903630407121307F01F636262
:102D1400A71237240020130744AB832A07021304A5
:102D240044AB639A0A0803D5C9009565938515E0F9
:102D340097D0FE1FE780C03008D02A866DC983D59E
:102D4400C90083A7490303A589008981829783A7C2
:102D54008900832A04025CD089476316FA08C147B4
:102D64006397F40C83D5C9009147938505FCB3C5DB
:102D7400F5028A05D69503C725009307A0056314B9
:102D8400F70A83D705006390470B4A852686910589
:102D940097D0FE1FE780C0471C5056856393571396
:102DA4000145F2406244D2444249B249224A924A1D
:102DB400024B056182805850E380E7FA03D5C900CD
:102DC4009565938525E097D0FE1FE7806027AA8A42
:102DD40039CD83D5C9002A8683A7490303A5890071
:102DE4008981829795BF8D47631BFA00C147639021
:102DF400F40483D5C900938545FDF199A5BF914796
:102E04006318FA006395440383D5C900A115F5B787
:102E140093070010631DFA00A14763EA970083D566
:102E2400C900C115D9BF1C5056856390570D29455B
:102E34008DBF9D6A637C5509930A05E01947B3CA9F
:102E4400EA0203D7C900372B0020B38AEA02BE9AEC
:102E540093074BABDC53130B4BAB63955701032424
:102E64000B021DE003D5C9009305E00497D0FE1FB3
:102E7400E780001D2A8445DD83D5C90083A7490363
:102E84002A8689815685829791451307A0058981F1
:102E940093972500A29783C627006393E60483D6FD
:102EA4000700639C460385058A052686A2954A8504
:102EB40097D0FE1FE780C03583270B02E38287EE9D
:102EC400228597D0FE1FE780A025D9BD21677917F9
:102ED400E36FA7F4B30A5541ADB783C5370045BFC7
:102EE40083270B02E38587F4228597D0FE1FE780B2
:102EF400202335BFB727002083A547AD8DD991473F
:102F04009306A0058983139727002E97034627006D
:102F1400E31FD6F003560700631C460185078A07A2
:102F24002686BE954A8597D0FE1FE780602E8DBD0C
:102F340083473700C1BFB7270020938747B098471E
:102F440029C3985F1DCF8546631DD502411122C454
:102F540037240020130444AB105006C619CE83D581
:102F6400C700485089810297085097D0FE1FE78018
:102F7400201B2320040223220402B24022444101E4
:102F840082808280011122CC37240020930744B030
:102F940056C283AA870026CA4AC84EC606CE52C461
:102FA4002A89AE84B289130444B0638C0A1C1C5C65
:102FB40099EB2945F2406244D2444249B249224A3B
:102FC400924A056182805C58EDD79307F01F63E84D
:102FD400A70C372A002093074AAB9C53130A4AAB29
:102FE400B9C7084483274A02639FA7048947631724
:102FF400F906C147E39FF4FA0355C400914713054A
:1030040005FC3345F5029317250003250A0226869D
:10301400CE853E959307A0052301F50023102501D5
:10302400110597D0FE1FE780A01E014561B7035527
:10303400C4009305E00497D0FE1FE78060002320BE
:10304400AA0245F1BDB78355C4005C5803260A02A1
:10305400898182971C442322FA0249BF8D47631C4D
:10306400F900C147E397F4F40355C400130545FD83
:103074009377C5FF59BF91476318F900E39B24F385
:103084000355C4002115EDB793070010E313F9F2BB
:10309400A147E3E097F20355C4004115D1BF9D67F2
:1030A4006378F506930705E01947B3C7E7020357AA
:1030B400C400372A0020B387E702BE9A93074AABBD
:1030C4009C53130A4AABA1CF83274A02639557073F
:1030D40003250A0291461308A0059305F00F93D720
:1030E4002600139727002A9703462700631606072E
:1030F4008358070003463700639C2805B306D6406F
:1031040063C6960485078A072686CE853E9511BF39
:1031140021677917E36FA7E8B307F54049BF035563
:10312400C4009305E00497D0FE1FE78060F12320DC
:10313400AA0259F9BDBD8355C4005C5803260A028E
:1031440089815685829723225A0359B72310B700E1
:1031540093160601C18261B70356C400B385960075
:103164009105130606FCE3F6C5E413863400719A50
:103174001106B2962301070123102701A301D700EA
:1031840051B7372A002093074AAB9C53130A4AAB22
:10319400A9C303250A0291461308A0059305F00F5D
:1031A40093D72600139727002A9703462700631412
:1031B4000605835807000346370063982801B306C1
:1031C400D640E3D196F42310B70093160601C182CA
:1031D400C1BF0345E4008357C4009305E0043305ED
:1031E400F5024205418197D0FE1FE78060E5232068
:1031F400AA0245F17DBB0356C4008345E400B385B0
:10320400C502338696001106E3E5C5DAB9BF014568
:10321400828083C705002300F50083D72500A3001F
:10322400F50083D72500A1832301F50083C745005A
:10323400A301F50011458280B727002023AA079631
:10324400B727002023A80796828029C1411126C2EE
:1032540006C622C4AA8401458DC52E84B7D50300B1
:1032640022854146938585F297D0FE1FE78040FA78
:1032740083C7040005452306F40083C71400A3068E
:10328400F400B2402244924441018280014582808C
:10329400011122CC26CA06CE0947AA84328463814E
:1032A400E50441468147639BC500638FE60063974D
:1032B400B6000DA841478147638EE600F2406244A0
:1032C400D2443E85056182808A852285BD3F414680
:1032D4008A8519A88A85953F41468A85228531A029
:1032E400E39AB6FC2E86A285268597D0FE1FE7803A
:1032F4002003AA87E1B7B727002023A8A7968280D6
:10330400B727002023AAA7968280011122CC035458
:10331400650006CE26CA4AC84EC641C08329850028
:10332400AE842A8803C9090081471317890161877C
:1033340063550702B147054563FA870451144204F3
:1033440003552800418033878900A2864E8685452F
:10335400EFC00010B337A00085077D141355690032
:10336400420405891379F90341802380F400A38082
:10337400A4002381240123928400014719C01387E8
:10338400190098C409476383E7000145F240624489
:10339400D2444249B249056182800545C5BFC1672F
:1033A400F917630AF502D94763F7B702011122CC72
:1033B4002EC606CE2A84EF90804AB2456368B500D3
:1033C40022856244F24005616FA07070F24062444D
:1033D40005450561828005458280C167F91763143C
:1033E400F5006F90C047411106C6EFA0105D11E1D2
:1033F4005D45B2404101828091476394F502834761
:1034040005002300F6008347250003471500A207A3
:10341400D98F2311F6008347350001452302F600B6
:103424008280114582804111814522C426C206C68C
:10343400AA8405252A8409E9B727002083A70797CA
:1034440081C7F945268582972285B2402244924459
:103454004101828039714ED656D25AD006DE22DC22
:1034640026DA4AD852D4AA8A2E8BB28941EF36C6BC
:10347400AD379145EF906050AA844D492DC9B246AD
:10348400054A238034010544630A0B00B68513857D
:103494001400029B0505131405014180E20993D928
:1034A400894163D30902C1455685EFA0505F654940
:1034B40005E933868400A2852685EFB0903E2A89EB
:1034C40005E131044204418091472C085685231CB0
:1034D400F10026CE231D8100EFA060652A8901C971
:1034E40063070A00268597D0FE1FE78060C3F25069
:1034F40062544A85D2544259B259225A925A025BB2
:1035040021618280BA84014AADBF011122CC26CA4E
:103514004AC84EC606CE2A893284B689253FAA8473
:103524000DE1B727002083A7479781CF054763178D
:10353400E40003C4090005041374F40FA2854A854A
:103544008297F240624426854249D244B2490561D9
:103554008280AE86B7350100014705469385652113
:103564006DB783D705002300F50083D70500A18339
:10357400A300F5000945828083D705002300F500E8
:1035840083D70500A183A300F50083D72500230179
:10359400F50083D72500A183A301F500114582809E
:1035A40083D705002300F50083D70500A183A3007A
:1035B400F50083D725002301F50083D72500A183D7
:1035C400A301F50083C755002302F50083C76500F6
:1035D400A302F50003D585001905420541818280C7
:1035E40083D705002300F50083D70500A183A3003A
:1035F400F5000945828083D705002300F50083D7B1
:103604000500A183A300F50083D725002301F5005D
:1036140083D72500A183A301F5001145828003D53A
:103624004500060542054181828083D705002300B9
:10363400F50083D70500A183A300F50003D5250079
:10364400090542054181828083D705002300F500E6
:1036540083D70500A183A300F50083D725002301A8
:10366400F50083D72500A183A301F50003D5450008
:10367400110542054181828083C705002300F500BE
:103684000545828083D70500411122C406C6230064
:10369400F50083D705002E841105A183A30EF5FE42
:1036A40083D725009505230FF5FE83D7D5FFA18386
:1036B400A30FF5FE03C6F5FF97D0FE1FE78040B5C4
:1036C40003454400B24022441105410182808947E8
:1036D400639CF50083471500034705000145A207D5
:1036E400D98F2310F60082801145828003D705000C
:1036F400D94763FEE702011122CC06CE2EC62A84E6
:10370400EF90E015B24683D70600636DF50022857D
:103714006244F240B7350100014709469385655676
:1037240005610DBBF240624409450561828009458B
:10373400828091479DC583460500FD15C2058547D6
:10374400C1816392F60213D725008D89914791E9CF
:10375400914701CB05052301D6002310E60048C29A
:1037640081473E85828009479147E39CE6FEC9472D
:1037740033D7F502B3F5F502D1BFAE86B7350100F4
:10378400014711469385C557F1B193F7350091EB85
:103794008981914789C52310B60048C281473E8577
:1037A40082809147EDBF03C745008947631AF7023A
:1037B400011122CC2A84C84506CEAE86014719C51C
:1037C4002EC69D45EFE06FBCB2462A87228562442F
:1037D400F240B735010019469385455A05619DB9F4
:1037E4000945828099E11145828083470500054798
:1037F4002311F600E379F7FEFD1593F5F50F33D7A2
:10380400F502B387E702E390F5FE050548C22310ED
:10381400E6000145828083C745000947AE8663857B
:10382400E70041476399E700B735010001472146A6
:103834009385856805B1094582802310B60091E11E
:10384400014548C201458280AE86B7350100014773
:1038540029469385455EFDBE2310B60091E10145DE
:1038640048C201458280AE86B73501000147314622
:103874009385A55FC5B62310B60091E1014548C202
:103884000145828003D74500854763FDE7020111A6
:1038940022CC2A84884106CE0DC12EC68545EFE090
:1038A400CFAE2A8722856244B246F240B735010082
:1038B400394693852562056171BEF240624409452B
:1038C400056182800945828091479DC503470500B3
:1038D4008D46914763F2E602FD15C205C181B3C668
:1038E400E5023308D7026399050105052310D600C4
:1038F4002311E60048C281473E85828083C7450084
:103904000947AE866385E70041476399E700B73509
:10391400010001474146938585682DBE0945828093
:10392400B335B000139525008280011122CC26CA3C
:1039340006CE03C785008547AA842E8449466310B2
:10394400F702613C8357240049151306200963C814
:10395400A700F2406244D2440945056182800347CE
:10396400940085476314F70013660604484011C5A4
:103974008D4532C6EFE06FA13246A2866244F24022
:103984002A872685D244B73501009385E56205610F
:10399400D1B48D4763FFB702834715000347050081
:1039A400F115A207D98F2310F6008347350003478A
:1039B4002500C205A207C181D98F2311F600231265
:1039C400B60089C5110508C6014582802324060076
:1039D400E5BF11458280011122CC2A84884506CE98
:1039E400AE8611C52EC69545EFE02F9AB2462A87BA
:1039F40022856244F240B735010059469385C56477
:103A0400056189BCB335B000139525008280AE866C
:103A1400B7350100014761469385C56725BC8547D5
:103A2400114563F4D7028347160083450600A207B5
:103A3400CD8F2310F7009387E6FF2311F700894702
:103A44006386F600090650C30145828023220700DD
:103A5400E5BF0147814679468145EDBA83D7050024
:103A64002300F50083D70500A183A300F5000945D1
:103A7400828083C7250005472300F50003D5050090
:103A84006397E7000A050505420541818280C9471D
:103A94003305F502CDBF03D505000A054205418172
:103AA400828083D725002300F50003D5050083D742
:103AB40025003305F502050542054181828003D5C1
:103AC4000500828003D50500828003D5050082802D
:103AD40083D725002300F50003D5050083D72500EF
:103AE4003305F502050542054181828083D705002F
:103AF4002300F50083D70500A183A300F50083D735
:103B040025002301F50083D72500A183A301F50037
:103B140003D54500110542054181828083D7050004
:103B24002300F50083D70500A183A300F50003D586
:103B34002500090542054181828089471145639B1F
:103B4400F60083471600834606000145A207D58F79
:103B54002310F700828003D70500D947AE8663F9A6
:103B6400E700B745010001470D46938505A671BAE4
:103B74000945828011456393A60283471600834654
:103B840006000145A207D58F2310F70083473600AE
:103B940083462600A207D58F2311F700828083C7AE
:103BA40025000547FD1793F7F70F6361F70483D7E3
:103BB40005008DCF011122CC2A84C84106CE15C13F
:103BC4002EC68945EFD07FFC2A8722856244B246FF
:103BD400F240B74501001546938565A705616FF06E
:103BE400DF92F24062440945056182800945828082
:103BF4009547114563F9D706411122C426C24AC02C
:103C040006C683471600BA8403470600A207328417
:103C1400D98F2390F4008347360003472600930589
:103C24004400A207D98F2391F40089472382F4002A
:103C3400094613855400368997C0FE1FE780405D0E
:103C44009307A9FF2394F4009947631BF90023A663
:103C54000400B24022449244024901454101828059
:103C64001904C0C4FDB7828083D705008DCF01112C
:103C740022CC2A84C84106CE15C12EC68545EFD074
:103C8400DFF02A8722856244B246F240B74501003C
:103C94001D469385A5A905616FF03F87F2406244F4
:103CA4000945056182800945828099476395F60438
:103CB4008947411106C62302F7008347160083464D
:103CC4000600B285A207D58F2310F700834736007C
:103CD4008346260003464700A207D58F13055700E5
:103CE4002311F700910597C0FE1FE7806052B24090
:103CF400014541018280D14711456394F600C147D3
:103D04004DBF828083D705008DCF011122CC2A8438
:103D1400C84106CE15C12EC68945EFD01FE72A87B4
:103D240022856244B246F240B74501002546938598
:103D340065AA05616FF06FFDF240624409450561B3
:103D440082800945828089471145639BF600834739
:103D54001600834606000145A207D58F2310F700FD
:103D64008280011122CC2A84C84106CEAE86014746
:103D740019C52EC68545EFD05FE1B2462A87228554
:103D84006244F240B74501002D46938525AC056198
:103D94006FF0AFF711456393A6028347160083467D
:103DA40006000145A207D58F2310F700834736008C
:103DB40083462600A207D58F2311F70082800111C4
:103DC40022CC2A84C84106CEAE8611C52EC68545AE
:103DD400EFD0BFDBB2462A8722856244F240B74562
:103DE40001003546938585AC05616FF00FF293F7BA
:103DF4001600114589EB89476387F60085822312F3
:103E0400D70010C301458280011122CC2A84C84105
:103E140006CE15C12EC68545EFD03FD72A87228509
:103E24006244B246F240B74501003D469385E5AC95
:103E340005616FF08FEDF2406244094505618280AF
:103E440083D705008DCF011122CC2A84C84106CE28
:103E540015C12EC68945EFD05FD32A8722856244D7
:103E6400B246F240B74501004546938545AD05612C
:103E74006FF0AFE9F240624409450561828009456B
:103E84008280854763FCD7022304A700A304B700FC
:103E94008347160083450600A207CD8F2310F70041
:103EA4009387E6FF2311F70089476386F600090626
:103EB40050C30145828023220700E5BF114582805B
:103EC400014781464D4681456FF02FE48D471145EA
:103ED40063FBD7028347160083450600A207CD8FF4
:103EE4002310F7008347360083452600A207CD8FB1
:103EF4002311F7009387C6FF2312F7006386A600F9
:103F0400110610C70145828023240700E5BF011173
:103F140022CC2A84884506CEAE8611C52EC6954588
:103F2400EFD0BFC6B2462A8722856244F240B74525
:103F340001005D46938505AF05616FF00FDD854790
:103F440011456397F6008347060001452300F700F7
:103F5400828001478146654681456FF00FDB011180
:103F640022CC2A84C84106CEAE86014719C52EC686
:103F74008D45EFD09FC1B2462A8722856244F24024
:103F8400B74501006D46938505B205616FF08FCC8E
:103F9400011122CC2A84C84106CEAE86014719C538
:103FA4002EC68D45EFD07FBEB2462A872285624455
:103FB400F240B74501007546938505B205616FF07F
:103FC4006FC9011106CE2EC6EFA0401B01C9B24530
:103FD400F2400355250005616FE0A070F2404945A9
:103FE40005618280B7270020A380079AB7270020A5
:103FF4002380079AB727002023A40798B727002017
:1040040023A60798B727002023A80798B7270020DE
:1040140023AA0798B727002023A20798B7270020D0
:1040240023A00798B7270020239E07B6930640389D
:104034009387C7B72391D702F1761307400B938672
:1040440006B82391E7002392D70211679D46130611
:1040540000059305000A1305007D2392E7002393CE
:10406400D70241478546130810F82395E7002396A5
:10407400E7002399E700239AE700239BE700239CAA
:10408400E7002394E7022393B7002394B700239710
:10409400C7002398C700239DA700239E0700239FE2
:1040A4000700239007022395D7022396070323973B
:1040B40007029308F007239807022392E704239347
:1040C400E704239FE7042390E7062391E70623925E
:1040D400E706239917031307C01C239AD702239BCF
:1040E400D702239C0702239D0702239E0702239FD6
:1040F4000702239007042391D704239407042395EC
:1041040007042396D7042397C7042398C704239945
:10411400A704239A0704239B0704239C0704239DD5
:10412400C704239EC7042393A70623940706239555
:104134000706239607062397B7062398B7062399FD
:104144000706239AE7065147239DE7067D57239BDD
:104154000706239C0706239ED706239F0706239062
:1041640007092391E7088280011126CAAA84214500
:1041740022CC06CE2E8432C636C43AC2EFD03FAB30
:104184001DC9A24612473246930700FD2300F500DD
:104194009947A30095002301F5002303D500A30349
:1041A400E5002312C500AA8522856244F240D24468
:1041B40005616FD03FB6F2406244D244056182800B
:1041C400B727002023A4A7988280B727002023A61E
:1041D400A7988280B727002023A8A7988280B727B2
:1041E400002023AAA7988280011122CC4AC806CEB7
:1041F40026CA2A890144B30489006368B400F240E2
:104204006244D2444249056182802EC6EFD0FFCB7E
:1042140093170501C183A183B2452380F40093075A
:10422400140093F7F70F850463F9B700CA970904DC
:104234002380A7001374F40F7DBF3E847DBF41111A
:1042440022C4372400201304C4B503556400C16795
:1042540006C6FD17630FF500B727002003C687CBFA
:10426400B725002093858599EF90504FFD57231370
:10427400F400B24022444101828009C92515137516
:10428400F50F1335850E1345150082800145828094
:1042940023900500C9C6797122D426D24ECE52CCC1
:1042A4005AC806D64AD056CA5EC63684328AAE8901
:1042B4002A8B814463F34407B307940083C7070040
:1042C400138914004209939A070193DA0A011359D6
:1042D400090163840A04CA976341FA04B3072401F9
:1042E40083CB07005E85513F0DC99387FAFF239066
:1042F400F90063906B03130519002295B250225400
:1043040092540259F249624AD24A424BB24B456135
:104314008280D694C204C18071BF0145C5B70145EE
:104324008280011122CC3724002026CA4AC84EC6F6
:104334009307C4B506CE2E89D0CB8CCBC8C7AA842C
:1043440041469305F00F4A8597C0FE1FE78020057C
:1043540085491304C4B5631935030848C145693553
:1043640041469305F00F268597C0FE1FE780200382
:1043740005496315250348446244F240D244424946
:10438400B249C14505618DB5414681454A8597C00D
:10439400FE1FE780C000E31535FDC1B741468145E6
:1043A400268597C0FE1FE78080FFE30625FDF240C7
:1043B4006244D2444249B24905618280411122C417
:1043C4003724002026C24AC0AE842A89130600027C
:1043D40081451305C4B506C697C0FE1FE780E0E912
:1043E4009307C4B5A3812701B7270020238E97CA5A
:1043F400EFE06031854719C181474945230EF4B484
:10440400B24022449244024941018280814781CDD5
:1044140019C98547631BF50083C7550093E707FC5B
:10442400A382F50085473E85828089476317F5009E
:1044340083C7550093F7F703E5B70D478547E314A2
:10444400E5FE03C755001377F70313670704A38238
:10445400E500D1BF81478DC105C103C7550093064F
:10446400000C85471377070C6308D70093060004F4
:104474008D476303D70089473E858280411122C45A
:10448400005D06C626C21DC8AA84085009C597C087
:10449400FE1FE780E0C8485009C597C0FE1FE780AB
:1044A40020C8085409C597C0FE1FE78060C722854D
:1044B40097C0FE1FE780C0C623AC0402B24022446A
:1044C40092444101828019E9B727002083C7E7B5E8
:1044D40091C7372500201305859782803725002052
:1044E400130545B78280B727002003C5E7B582804E
:1044F400B727002003A587B68280B727002003A52D
:10450400C7B68280B727002083A707B78843828075
:10451400B72700209387C7B5D44B9842050798C2A4
:1045240003C537009307F00F6305F50091656FD05D
:104534001FB48280011122CC06CE2E8432C6EF90A5
:1045440090549147B2456310F502B727002083A722
:10455400479995C303A30700630F030022856244B0
:10456400F24005610283B727002083A7C79881C75B
:1045740003A34700D5B7F240624405450561828034
:10458400011122CC2A840355450006CE26CA4AC806
:104594004EC6EF90702D25CD2A89834405008349AA
:1045A400C500E93D4A85EFA0200D03554400EF9076
:1045B400D048372900201309099A83470900A1CF5D
:1045C400639B9704B727002083C5179A2685EFF0CD
:1045D4005F9F19E12300090003554400EF90B04A9E
:1045E4009147631FF500B72700209387C7B583560B
:1045F400440003D767006395E6007D572393E700E3
:10460400F2406244D2444249B24905618280814900
:104614009304F00F79BF9307F00FE38FF4FA834606
:10462400640003564400034524004E87A6852D3EAE
:1046340065B779715EC6AA8B2E8552CC56CA5AC804
:1046440006D622D426D24AD04ECEAE8A328B368AB1
:10465400EF9090217DC1045D2A89E5C09C5061459D
:1046640099C3130540039C5481C7510542054181F8
:1046740063050A00710542054181DC5081C75D056F
:1046840042054181EFD0AFDA2A8445C961468145AC
:1046940097C0FE1FE78060BEB727002083C9C7BA52
:1046A4006394090083490900930700FD2300F40083
:1046B400A947A30074012301F400230364018C506F
:1046C400231254011305840191C908C47146930A45
:1046D400440397C0FE1FE780A0B356858C5491C94C
:1046E40048C45146930A450197C0FE1FE78040B273
:1046F4005685630C0A0008C87146D285930AC50121
:1047040097C0FE1FE780C0B05685CC5099C548C8F5
:104714005D4697C0FE1FE780A0AFA2854E85EFD00F
:104724006FDF2254B2509254F249624AD24A424B49
:10473400B24B4A850259456191B3B2502254925406
:104744000259F249624AD24A424BB24B45618280D5
:1047540001114EC6AA892E854AC806CE22CC26CA85
:104764002E89EF90701021C9B727002083C4C7BADF
:1047740099E0834405001945EFD06FCB2A8405CD19
:104784008145194697C0FE1FE78020AF930700FDBF
:104794002300F400B947A30034012301F4002312D9
:1047A4002401A2856244F2404249B2492685D2449A
:1047B40005616FD02FD6F2406244D2444249B249D7
:1047C4000561828039715ECEAA8B2E8526DA4ED69B
:1047D40052D456D25AD006DE22DC4AD8AE84328B6A
:1047E400B68A3A8ABE8942C6EF90100821CD2A893A
:1047F4004145EFD0CFC32A8431C54146814597C096
:10480400FE1FE78080A7B727002003C5C7BA19E1B8
:1048140003450900930700FD2300F400BD4723016D
:10482400F400B247A300740123129400230464012A
:10483400A304540123054401A30534015CC4A285E7
:10484400EFD04FCDF2506254D2544259B259225A49
:10485400925A025BF24B21618280797126D2AA843A
:1048640039454AD04ECE06D622D42EC6B2893689D0
:10487400EFD0EFBB21C1B2459307000D2310F50023
:10488400B1472A842312B5002301F500CE8519050A
:10489400194697C0FE1FE780A09723062401A2852E
:1048A4002254B2500259F24913F5F40F925445615F
:1048B4006FD04FC6B250225492540259F249456106
:1048C4008280411126C2B72400209384C4B503C753
:1048D400340006C622C44AC09307F00F630CF704E1
:1048E4002A893945EFD0AFB42A8429C5930700FD3E
:1048F400B72500202300F500A300250123010500AE
:10490400938545B70D05194697C0FE1FE780409073
:1049140083D78400A28503C534002315F40083C71C
:1049240014002306F4002244B24092440249410197
:104934006FD04FBEB240224492440249410182806A
:1049440001115AC02A8B314526CA4EC652C456C2DA
:1049540006CE22CC4AC8AE84B28A368ABA89EFD04F
:104964000FAD3DCD2A842685EF90007011C5034715
:10497400C500A1476314F704B727002003C9F7B59E
:10498400930700FD2300F4009D47A3006401230165
:10499400F400231294002313540123144401231517
:1049A4003401A2856244F240D244B249224A924A76
:1049B400024B4A85424905616FD0CFB5B727002025
:1049C40003C9D7CBE31E0BFAB727002083A707A59B
:1049D4009C47DDD7CE865286D685268582974DB7ED
:1049E400F2406244D2444249B249224A924A024BBA
:1049F40005618280011122CC2A84214506CE2EC66F
:104A0400EFD0EFA221C1B245930700FD2300F500CA
:104A1400C5472301F50083C73500A301F50083D7FB
:104A240045002312F50083C765002303F50083C7FF
:104A34007500AA85A303F50022856244F24005614E
:104A44006FD04FADF240624405618280397162CC0F
:104A54002A8C594526DA4AD84ED652D456D25AD040
:104A64005ECE06DE22DCAE8432C636C4BA8B3E8B02
:104A7400C28A468A8359010403494104EFD02F9B1B
:104A840025C93246930700FDA2462300F500954749
:104A9400A301C500A30085012301F5002A8419465A
:104AA4001105A9C2B68597B0FE1FE780607623067C
:104AB4006401230A240123157401231754012318C4
:104AC400440123193401A2856254F2504259B25967
:104AD400225A925A025BF24B624C2685D2542161CF
:104AE4006FD04FA3814597B0FE1FE7800079C1B70F
:104AF400F2506254D2544259B259225A925A025B29
:104B0400F24B624C21618280411122C4372400207F
:104B14001304C4B58347240006C626C28DCBB7242C
:104B24000020AA8519461385849797B0FE1FE78055
:104B3400206E0345240093858497EFF03F8D224433
:104B4400B24013858497924441016FD0903CB240A7
:104B540022449244014541018280411126C2B72476
:104B640000209387C4B506C622C44AC003C73700D1
:104B74009307F00F9384C4B56304F7042A89294585
:104B8400EFD0EF8A2A840DCD930700FD2300F500B2
:104B9400A147A30025012301F50083C72400B725FD
:104BA400002093858597A301F5001946110597B058
:104BB400FE1FE780E06503C53400A285EFD08F9522
:104BC40003C724008D476311F702B727002083A78A
:104BD400079999CB03A38700630803002244B240DA
:104BE4009244024941010283B24022449244024960
:104BF40041018280797122D406D626D24AD04ECE83
:104C040052CC56CA09445DCD2A8903550500AE89A4
:104C14005144EF906045AA8455C537270020930777
:104C240087CB83C747008546BA8AFD1793F7F70FEA
:104C3400494463F9F6080347C500A1476314F70024
:104C4400639209089C5C4544B5EF91659385457171
:104C54001305C00297B0FE1FE780803E88DC2A8AD5
:104C64004D442DC11306C002814597B0FE1FE78055
:104C7400C0608357090093064A0036852311FA0061
:104C840071469305490036C697B0FE1FE780405829
:104C940089472300FA0003C5C400B246035609003D
:104CA40083C58ACB611513351500EFA0406E2A84A5
:104CB40063860900CE852685EF90B04B01C4268516
:104CC400EFF0CFFB2285B250225492540259F2499C
:104CD400624AD24A45618280B727002083C7C7CB86
:104CE4000547FD1793F7F70F637AF708894741CA19
:104CF400011122CC26CA4AC84EC652C406CEAA897D
:104D0400368AB2842E89EF9020362A84D14739C955
:104D1400485509C597B0FE1FE7808040F1452685B8
:104D240097B0FE1FE780005B48D4CD4705CD83468E
:104D3400C40021478147639FE600630D0A000347CF
:104D4400A5010356050193062501AA854E85EF901A
:104D5400F049AA8703474400630F090013676700FB
:104D64002302E400F2406244D2444249B249224A56
:104D74003E850561828013674700DDB7C9473E85DC
:104D840082809307000463EBA700B7270020938772
:104D9400C7B706053E9503550500828041657D151C
:104DA4008280011122CC2A842E8526CA06CEAE84A6
:104DB400EF90802B1DCDB7470F009387F72309454C
:104DC40063E4870281450A85414697B0FE1FE78068
:104DD400C04AA685231081000A85418023018100F1
:104DE400A3010100EFA0403AF2406244D2440561BD
:104DF40082804945D5BFB7270020238DA7CA82806A
:104E04006FA00053797152CC2A8A328522D426D2DB
:104E14004AD04ECE56CA5AC85EC606D662C4AE8BB7
:104E2400B28A368BBA843E89C2894684EF90C02305
:104E340015C92A8C63140A0213774B008347450073
:104E440015CF93E727012302FC008DEC631C0902B4
:104E5400639A090205E8ED9B2302FC00832B8C0373
:104E640063910B08B250225492540259F249624A97
:104E7400D24A424BB24B224C45618280F59B93E768
:104E84000701D1B793E747002302FC0001CC1C487B
:104E94004146A2852324FC0213058C0197B0FE1F12
:104EA400E780003763930B02D5D80325CC0209C5EC
:104EB40097B0FE1FE780C026F145268597B0FE1FF8
:104EC400E78040412326AC0251BFE30909F80325DA
:104ED400CC0209C597B0FE1FE7808024F1454A85BE
:104EE400F1BF9DC483A70B0299EB9165938535713E
:104EF400714597B0FE1FE780A01423A0AB0203A561
:104F04000B0219C57146A68597B0FE1FE780403095
:104F14006388090283A74B0299EB916593852571F8
:104F24005D4597B0FE1FE780A01123A2AB0203A545
:104F34004B0219C55D46CE8597B0FE1FE780402D14
:104F44001DC483A78B0299EB916593851571514517
:104F540097B0FE1FE780C00E23A4AB0203A58B020B
:104F640019C55146A28597B0FE1FE780602A2254D6
:104F7400B2509254F249B24B224CCA865A86025914
:104F8400424BD6855285D24A624A45616FF06FEA38
:104F9400011126CA52C406CE22CC4AC84EC62A8A59
:104FA400AE84EF90600C25C5AA893945EFC03FC88F
:104FB4002A8431CDB727002003C9C7BA6314090076
:104FC40003C909009307000D2310F400AD47230122
:104FD400F4009385690013053400194697B0FE1F49
:104FE400E780002393F71400858085882306F40066
:104FF400A306940023154401A2856244F240D244DE
:10500400B249224A4A85424905616FC0BFD0F24085
:105014006244D2444249B249224A05618280011164
:105024004EC652C456C206CE22CC26CA4AC8AA8A42
:105034002E8AB289EF9040032DCD2A891305C00230
:10504400EFC0FFBE2A8435C5B727002083C4C7BA82
:1050540099E0834409009307000D2310F400E94705
:105064002301F4009305690013053400194697B031
:10507400FE1FE780E019D285231554011305C400EF
:10508400414697B0FE1FE780A018CE851305C401E2
:10509400414697B0FE1FE780A017A2856244F24004
:1050A4004249B249224A924A2685D24405616FC0D8
:1050B4007FC6F2406244D2444249B249224A924AEB
:1050C40005618280411122C437240020130404980E
:1050D400084006C619C597B0FE1FE7806004232068
:1050E4000400B240224441018280011106CE22CC48
:1050F40026CA4AC82EC6EF80307739CDB245B727C5
:10510400002003C9C7BA0CD5AA8463140900034953
:1051140005004145EFC0BFB12A841DCD9307000DA2
:105124002310F500A5472301F50083C75400938598
:1051340064001105A30FF5FE194697B0FE1FE78022
:10514400200D9C54A285F2405CC46244D2444A853A
:10515400424905616FC01FBCF2406244D2444249D7
:10516400056182801D71A2CC86CE2A842EC6EF8072
:10517400B06F05CD8346C5001147AA8749456392A0
:10518400E6029C5FB24599C383C56701B706020076
:105194002308B10093860636100889452285EF90CE
:1051A4000074F6406644256182805145DDBFB7270F
:1051B400002083C7C7CB0547FD1793F7F70F637A22
:1051C400F704894721CA411122C426C24AC006C62F
:1051D400B2842E89EF8050692A84D14705C56308BB
:1051E40009008347450093E727002302F500414661
:1051F400A6851305840197B0FE1FE78060019C48D3
:105204001CD48147B2402244924402493E85410164
:105214008280C9473E858280797122D406D62A8449
:105224002EC6EF80706401CDB2452285230EB100F5
:105234006C08EF908070B2502254456182805145D1
:10524400DDBF6F801079C1671387E7FF6395E502BF
:10525400B727002083A7C79891EB49458280494529
:10526400B2402244924402494101828003A30700D0
:10527400E30503FE0283411122C426C24AC006C6C6
:10528400FD172A892E84B284639AF502B727002079
:1052940083A7C79891CF9C4381CF829711E9B72701
:1052A40000202380279BB7270020A380979A4DBF17
:1052B400A6854A85EFE0FFD045F5D5B72E85EF806A
:1052C400B05A51DD834705000D45E39B27F922853C
:1052D4002244B2400249A685924441016FD0604005
:1052E4009307000463E2A7064111C16722C406C6FE
:1052F40026C2FD172A8409456382F502C547AE8498
:105304006313F4022E85EFD0804537250020130562
:10531400C5B706042A94231094000145B2402244E0
:105324009244410182809307A0036316F4002E8502
:10533400EFD0E03BD9BF9307B003E318F4FC13F5B7
:10534400F50FEFD0003BD1B709458280011106CE9D
:105354002AC6EFE03FC9EF206073EF105014EF60EE
:10536400F273B72700209387C7B5130700F0239182
:10537400E70023820700B72700203245138787CB35
:10538400FD562301D700F240238CA7CA9545056139
:105394006F700059597193970501CAD086D6A2D46B
:1053A400A6D2CECED2CCD6CADAC8DEC6E2C4E6C213
:1053B400EAC06EDEC1872E8963D40756B724002065
:1053C40003C584CBB7290020372B0020EFC0BF8C46
:1053D4002A8426CCB72A0020372C00209384C9B510
:1053E400B72C00201DE021653345A900B650265492
:1053F40096540659F649664AD64A464BB64B264C4D
:10540400964C064DF25D6561828083470400130764
:10541400200A639CE70003CA340003552400C165D5
:105424002286FD15EFF00F918DA26247130787CBFB
:10543400034A2700130710096395E71683471400EE
:105444001547639FE7002285EFF08F932285EFC015
:105454002FF9E24703C587CBEFC0FF832A8459B7EE
:1054640039476398E716035544008567A507631514
:10547400F5040C4483CB0500639D0B00850591C99D
:10548400372500201946130545B797B0FE1FE7805E
:1054940020D803C7C9B585476315F71063880B0087
:1054A400238E09B45E85EFF0CFC14DB78947238EB3
:1054B400F9B4EFD0C02559BF896713872700631C4F
:1054C400E504832B8400638E0B0C83C70B0089EFE8
:1054D40083C72B0003C71B00A207D98F2394F400B2
:1054E40083C73B00A380F40003C7C9B58947631A87
:1054F400F70A83C70B0091C7238E09B403C50B00B9
:105504005DB783C5140003D584008D47238EF9B499
:10551400EF700044E5B795076318F5001C4403C514
:105524000700EFF08FE31DB7F9771387A7FF2A97DA
:1055340042074183914663F1E6049387A7FCAA9747
:10554400C207C18371476371F70289671387B70084
:105554006310E50483A78A98E38A07EE9C43A28537
:10556400E38607EE829715A0370700181307F77034
:10557400B357F700858BA1CB83270B99E38807ECFE
:105584009C43E38507EC22858297E31105EC11A87F
:105594001387C7006310E5021C4483C70700E38731
:1055A40007EA9307F00FE303FAEAA2855285EFC0F6
:1055B4006FF645B5B9076318F50083A7CC98E38760
:1055C40007E8DC4369BF896793871704E304F5F8A8
:1055D400C9BF3D476399E7040355440089671387AE
:1055E400D700E30CE5FC13879701E308E5FCCD073E
:1055F400E319F5FA03D76400C167FD17631DF700CB
:1056040083A7CC98E38407E4DC43E38107E40965DA
:10561400A2854D0581BFB727002083A74799E3875B
:1056240007E29C43DDB71307E003E39CE7F68347F7
:10563400240005476398E70E83476400372700205A
:10564400930D0798E1E783A70D00D5CF83CB07001F
:10565400214A03457400130D8400EA85EFE09FDFBF
:1056640083474401A303A400835804010358E400BE
:10567400035744002A86034534003EC2835724015D
:10568400EA86DE853EC0D287EFF04FBC8347340004
:1056940095E7DD47835804010358E400834674000A
:1056A400835544003EC2835724016A873EC0D28793
:1056B40005465E85EF803054A301A40083A70D0046
:1056C40081C71145EFF01FA0930B0C9A03C50B0083
:1056D400E30E05D6B727002083C5179AEFE07F8E27
:1056E400E30605D68346340093071003638AF60065
:1056F4000356440083C50B0052873685EFE0DFA6CE
:1057040023000C9AA1B383CB340099B783270B9958
:1057140083CB3400114A95DFDC4385DF81450145A5
:10572400829705BF29476398E70A834764003727B0
:105734000020930D0798A5EF83A70D00B5C783CB71
:105744000700214A034574009306840093772500DB
:10575400BDCB137615001303440183470402835819
:10576400C4010358A40103574400034534003EC256
:105774008357E401DE851ACE3EC0D287EFF00FAD29
:105784008347340072439DFBDD478358C4010358AB
:10579400A40183467400835544003EC28357E40148
:1057A4001A873EC0D28729B783CB340059BF8327D9
:1057B4000B9983CB3400114AD1D7DC43C1D781453F
:1057C4000145829741B7B68536CEEFE0BFC8F246B1
:1057D4002A86368359B70947639CE70083A78A98CA
:1057E400E38607C6DC43E38307C622858297B9B9FB
:1057F4002D476398E70083A78A98E38907C49C47E9
:10580400DDB70D476397E70022868D4503554400B5
:1058140011B919476395E706930561021305103121
:10582400EF6072302C1013052031EF60D22F035635
:105834006400835781020355440063E8C70083561C
:1058440084000357610263F7E60093050002EFC08A
:105854001070EDBE6374E6002313E40063F4D70014
:105864002314F4000357C4008356A4000356840091
:105874008355640001488147EFC0306DC1BE1D47A8
:10588400E381E7D231476395E7002286B145BDBF86
:1058940035476398E70083A78A98E38907BADC470A
:1058A40099B739476396E7002285EF00F00779BE80
:1058B4003D476398E70083A78A98E38907B89C4B20
:1058C4001DB741476396E7002285EF001011BDBE66
:1058D40045476396E7000145EF00902085BE4947A0
:1058E400639DE70083270B99E38D07CADC43E38AB2
:1058F40007CA8145054582976DB14D47639CE70012
:1059040083270B99E38F07C8DC43E38C07C8A28580
:105914000945D5B76147E396E7C82286E145FDB559
:1059240093F7150089CFB727002083A7879889C7E5
:10593400DC4399C3014582971345190045BC93F78D
:10594400250091CFB727002083A7079991C7DC438F
:1059540081C78145054582971345290041BC93F7CA
:1059640045000145E38407A8B727002083A747988B
:10597400372400201304C4B591CF85472302F400D3
:10598400B727002083A7079991C7DC4381C78145C6
:105994000545829748442C10EF90606B2810EFF077
:1059A400AF96B727002083D7E7B981CF13060064E9
:1059B4003386C702B727002003C587CB9145EFC0C4
:1059C4003F81134549001DB4011122CC2A84554559
:1059D40006CE26CAEFF0EFBAAA8413054002EFF010
:1059E4004FBA2AC613055002EFF0AFB9AA86228532
:1059F40062443246F240B3359000D24405616FC030
:105A0400705B797122D406D68D472E84631FF5000E
:105A140003D7A50083D6850003D66500034534006B
:105A240083D54500EFE0DFF109A889671387D70024
:105A34006311E50403C5250019E58547B2502254D6
:105A44003E8545618280B727002083A60798F5D656
:105A540003C6360083C50600814802C202C001485D
:105A6400814701479106EFE07FFE0545EFF08FE5A2
:105A7400E9B71387E700E302E5FC13873701631AEC
:105A8400E50003C5250055D90147814601468145F6
:105A940051BFE507E303F5FAB1476319F500B727EA
:105AA400002003C5F7B5EFE0FFF441BF41677D1760
:105AB4008147E315E5F803C75500C947E31FF7F627
:105AC40083D6E50003D6C5000355840083D5A5001D
