:10C000006F005210000000000018011800280128DD
:10C0100002280328002901290229032904290529C6
:10C02000062907290829002A012A022A032A042AA4
:10C03000052AA62A60D00200EADD000020030020C5
:10C040009E030020A80200207A0200201002002097
:10C0500080DE0000C4DE0000E2DF00005AE20000E3
:10C0600038E3000034DC000000DB0000B6DB000039
:10C070004EDB000062E900003005002056DE0000C3
:10C0800044E60000B4870200AC890200248A020062
:10C09000A4490200D849020028FB0100BAED0100C2
:10C0A0008E8102007AE60000E6500200B2880100AC
:10C0B0004089010098890100EAF1000036F2000091
:10C0C000A0F00000CA440100843F0100604E01005E
:10C0D00030520100DC550100BE3101005C3101002D
:10C0E000443501000A32010032310100B63101004D
:10C0F000E43001008E320100E63201009632010088
:10C100009A32010034330100EE3201002033010085
:10C11000383801003C3801008A32010092320100B7
:10C12000323301003A380100E2330100AA3901003C
:10C130003A640100B8640100F66401002E47010072
:10C140004647010082470100962B0100B42C0100F4
:10C150002A2D0100C81001006A0B0100B421010062
:10C16000E80B0100181D0100ACB102000AAA020090
:10C17000E6AE02000AC50200F0C302007CC702005E
:10C180006CC7020074C70200B4C70200249C0200FE
:10C19000000000000000000000000000000000009F
:10C1A00024C80200EAC1020080C1020000000000B1
:10C1B000000000000000000000000000000000007F
:10C1C000186B020048590200CE5C0200A65A020019
:10C1D000EE640200368202002C810200589C0200AC
:10C1E000E8EA0000144B0200C6500200BE510200F3
:10C1F0000000000000000000000000002A4B0100C9
:10C200004A6A020000000000000000000000000078
:10C21000F8580200640C0020DE4B0200A0C70200A8
:10C22000000000000000000070C70200EAE100000A
:10C2300080480100A8C70200EE6B0200BC6C02003F
:10C24000366D020044AF0200A4C70200ACC7020072
:10C2500046ED0100B0C70200C610002060170020A4
:10C2600024AF0200CAB0020000000000000000007D
:10C2700000000000000000000000000000000000BE
:10C280006373B60082801C419105110523AEF5FE53
:10C29000C5BFB7270020372700209387878B130758
:10C2A00087E06373F700828023A007009107D5BF62
:10C2B000411122C4B7C7004006C603A4C72023A665
:10C2C00007200F10000011C199E5B7C7004023A651
:10C2D0008720014545A893073500C207C183F19B1C
:10C2E000C207C183130740036366F70237270020A4
:10C2F0000325879D372700208326079D6391A6028B
:10C3000037270020032707A669D3C207DD8D05451F
:10C31000029765BF372700200325479DE1BF0357DC
:10C3200065002DE7035745006362F706B726002036
:10C330003306F74021489386069E6378C802832817
:10C34000050003D86600138687001D8F2A966117A3
:10C350002312E600232016012313060010C1231226
:10C36000F500130788FF2393E6002313B50083D558
:10C3700066002105B387F5402393F600B7C7004058
:10C3800023A68720B2402244410182800841BDB7E4
:10C39000B7C7004003A8C72023A607200F1000003E
:10C3A00001E523A607218280B727002003AE879DE1
:10C3B000B727002003A3079D8146F28763FC670A25
:10C3C00083A80700636BF50A63E9A80A138787004F
:10C3D0006362E50A03D66700216705076319E60073
:10C3E000372600200347069405072300E6943726E6
:10C3F00000201305069E83D547000357650023934D
:10C4000007001306069E2E97420741832313E5007B
:10C410006387C703372500200325459D6301F50287
:10C4200003D5660009ED83D7460023A01601210736
:10C43000BE95A1052392B6002313E600B687984364
:10C44000630A6702B726002083A6469D6304D702CD
:10C450008356670085E283D647008355470018431B
:10C46000A106AE962392D70098C383576600A10712
:10C470002313F600B7C700402DB7BE86C6873DBF61
:10C48000B7C7004003A7C72023A607200F1000004E
:10C4900001C599C1814711E6B7C7004023A6E7202F
:10C4A0008280B386F50003C80600B306F500850751
:10C4B00023800601E317F6FEC5B737C70040832780
:10C4C000C720232607200F10000019C191C111E6D3
:10C4D00037C700402326F7208280910503A7C5FFB8
:10C4E00011057D16232EE5FEDDB737C700408327F3
:10C4F000C720232607200F10000001C53307C50001
:10C5000011E637C700402326F72082800505A30FD8
:10C51000B5FEE31DE5FEF5B7B7C7004083A6C7200B
:10C5200023A607200F10000081473307F5000307FB
:10C53000070019E737C700402326D7203E858280B1
:10C540008507E5B7011126CA4AC8B7C7004006CE1D
:10C5500022CC83A4C7202A892E8623A607200F1069
:10C560000000131506019305F004418132C689339A
:10C570002A8401C53246CA8521372285F2406244A9
:10C58000B7C7004023A697204249D2440561828064
:10C59000B7C7004003A7C72023A607200F1000003D
:10C5A00001C599C1814711EAB7C7004023A6E7201A
:10C5B000054582808507E309F6FE3308F500B3865A
:10C5C000F5000348080083C60600E305D8FEB7C798
:10C5D000004023A6E72001458280B7C7004003A79B
:10C5E000C72023A607200F1000009307F6FFBE9573
:10C5F0002A966317C500B7C7004023A6E7208280AC
:10C60000FD1583C715000505A30FF5FEDDB737C778
:10C6100000408327C720232607200F10000001C5F4
:10C620003307C50019E637C700402326F720014528
:10C63000828005058346F5FFE397B6FEE31BE5FE22
:10C6400037C700402326F72005458280797126D21E
:10C65000B724002022D403A4C4A206D64AD04ECECA
:10C6600052CC56CA5AC85EC662C44DC8372A00208A
:10C6700037290020B7290020814BB72A002037CB6B
:10C68000C901130A0AA31309099E938989A783572D
:10C69000240099EF5C44639A0B0023A6F4A2032CB8
:10C6A000C4002285F5316284B9A823A6FB00C5BF6A
:10C6B00083A74AA282971C443307F5406376F500AE
:10C6C00003A749001D8F2A979306FB3763ECE60604
:10C6D00023280900835524000345040097E000E067
:10C6E000E78040A15C405844B1C70C4403A6490010
:10C6F000AE97BE8663E4B70063E4C700B386C74065
:10C7000014C4A28B3A8441F4B72700209387079E74
:10C71000984B854663FCE6047D1798CBB2502254B3
:10C7200092540259F249624AD24A424BB24B224CCD
:10C730004561828063950B0023A6E4A28DB723A6F2
:10C74000EB00B1BF03274A0219CB63EDA700338585
:10C75000A740832709016374F5002328A900A28B51
:10C76000404455B703A74900BA97D5B723A8070097
:10C7700075B7B727002003A707A7411122C406C633
:10C780003E8411C30297B727002083C727A293F7DF
:10C79000F70F99E3232804A6B24022444101828086
:10C7A00001114AC8372900208327C9A006CE22CC10
:10C7B00026CA4EC652C456C25AC081C78297232683
:10C7C00009A09307C9A0DC43B72400209384C4A028
:10C7D00091C382978327C9A06394071A3724002046
:10C7E000930744D183C777001547130444D16309E5
:10C7F000F718372A002093078AA783C7C700130AB0
:10C800008AA785E383475400858B81CF83477400D3
:10C8100019476312F70EA3020400EF001041DC4435
:10C8200082979C4491C38297B7240020B7290020A7
:10C830009387049E03A789A203C61700938A049EC8
:10C8400083C7049E93961700BA9683D60600DDCE62
:10C8500083C7049E63E4C70C8327C9A02380049E7A
:10C8600063900712834774001547630BF7108347E3
:10C87000940081CF8347740093F7F70F99E7A304DF
:10C880000400974002E0E780207EB727002083A7BE
:10C8900047A2FDC783274A0023A8FA00453BB727D4
:10C8A000002083A747A5E9CF834774001547636934
:10C8B000F70CB7270020938747D583C7C700918B14
:10C8C000E1E3B727002083C727A293F7F70FCDEB4B
:10C8D00083C61A0003A689A263CED70A6244F24037
:10C8E000D2444249B249224A924A024B056117E3B7
:10C8F00000E0670043D3834774001D47E313F7F25A
:10C90000A3020400EF0070329C4819BF850793F71B
:10C91000F70F2380F49EE3E5C7F21DBF86073E971D
:10C92000835507002310070003C5049EB727002086
:10C9300083A787A013172500372B0020BA979C43A5
:10C9400023100BA2829783570BA203C7049E93C7A1
:10C95000F7FF7D8D9317170003A789A23E97835792
:10C9600007005D8D2310A70083C7049E81C785073C
:10C970002380F49E03C7049E83C71A00E37EF7EC6E
:10C98000F2406244D2444249B249224A924A024B9E
:10C9900005618280139717003297035707006DF3E4
:10C9A00085071DBF37C700408326C720B707FCFF98
:10C9B000FD17F58F2326F7200F100000B727002062
:10C9C0009387079EC84F832787262326D7206A058B
:10C9D00093C7F7FF99835D8D8280032785116300DC
:10C9E0000712411122C406C68347C5008345E504EA
:10C9F0002A8493F7C70F2306F50083469700035652
:10CA0000C70013958601618563F1C508635A050661
:10CA10000345870093F6F607A304D700054693E67F
:10CA200027006314C50093E617002306D4005C4377
:10CA300089075CC3A30AB400032504112E864C4366
:10CA400009053D3C8327841103465401D44303D791
:10CA5000C700B296118FD4C32396E7008947A30D70
:10CA6000F400B72700200347640383C727A4637833
:10CA7000F7048347C40093E707012306F40081A06D
:10CA800093E717002306F40075B79376F60F635DFE
:10CA9000050203458700854513E627006314B500AA
:10CAA00013E617002306C400A30AD400A30407005A
:10CAB0008547A30DF400832784119C43DDF3B24026
:10CAC000224401454101828093E717002306F400C8
:10CAD000A30AD400A3040700032504114C4309054D
:10CAE00045328327841103465401D44303D7C7003A
:10CAF000B296118FD4C32396E7008D475DBF0545DD
:10CB00008280B727002083A747CF411122C406C6E1
:10CB1000858B2A84DDEB4165130525F5970002E03E
:10CB2000E780E05B5DC18347A5002315F5008327FF
:10CB30000412B5E72320A4122322A412854723114F
:10CB4000F404232005008347640154412316F500B3
:10CB50000347D4002304E5000547A304E500372775
:10CB600000200327C7D21385170215811C437D15AA
:10CB70001375F50F9CC25C43DCC21C479CC65C4726
:10CB8000DCC61C4B9CCA5C4BDCCA1C4F9CCE5C4F69
:10CB9000DCCE19CD9386060213070702C1BF832797
:10CBA000441288C3835724042322A412850741BF5B
:10CBB000B7270020938787BD03D7870005072394F5
:10CBC000E700B2402244410182808347C400230928
:10CBD0000400054593C747002306F400DDB78347EB
:10CBE000850193F7E70FDDEB83479501C5EB03461E
:10CBF00025018346C50009CA372700208345650300
:10CC0000034737A463E7E50013F7060149CB014763
:10CC100009C6C18A0357E51881C683562519369778
:10CC20003DCFB727002003D507A81307C712374603
:10CC30000F00B335A702411113060624814622C412
:10CC400026C206C67D543305A70297C002E0E780DE
:10CC5000A0F9B727002083C777A4B384A700B7271C
:10CC6000002003A707C68327070963F387003E84D4
:10CC7000184375FBB727002083A747A282978147F7
:10CC80006364A400B307A440B2402244B3B7970042
:10CC900093C7170092443E854101828081473E85BB
:10CCA0008280B727002003A707D33C5BFDFF82806B
:10CCB000011126CAB7240020938784BD22CC03A487
:10CCC000070906CE4AC84EC652C456C26307041CA2
:10CCD00083570404A30F0400938484BD85072310A5
:10CCE000F4048347041422856382071CE12422850F
:10CCF00097F001E0E78040256311051A37290020ED
:10CD0000130689A70355860083576408B7460F00AA
:10CD10009385F623B387A702938606240327040985
:10CD2000230B0402032A4600130989A7AE97B3D741
:10CD3000D702636FF716B307F7408326C40823248E
:10CD4000F408814AB387E600BE8963E4D70063E450
:10CD50004701B38947418357040223283409A1CFEF
:10CD6000835604040357440237460F002312D402AB
:10CD70003387E640B387E7020357240213060624ED
:10CD800081468145BA97C207C1833385A702231123
:10CD9000F40297C002E0E78020E511CD4E95B3394B
:10CDA0003501AE99AA8763943A0163644501B307DC
:10CDB00045412328F408372A002083274AA2829776
:10CDC000AA8983274AA28297E30D35FF83274AA2C7
:10CDD00083298408829763E2A90E3385A94075C12F
:10CDE0008327C408637FF50CB7440F0093840424A1
:10CDF000B3359502035A89000359240281465286AD
:10CE00003305950297C002E0E78000DEB309A90070
:10CE10003305490337460F00130606248146814532
:10CE200097C002E0E78040DC15C1B3379502528617
:10CE30008146B385B4023385A402BE9597C002E053
:10CE4000E78080DA3305A9402311A40235459740D5
:10CE500002E0E780A02F0347B4008547631EF70078
:10CE6000930700FD2307F400B727002003A507D090
:10CE700097E000E0E7804090B7270020938747D1F4
:10CE80001547A383E700B727002083A707D33707F9
:10CE90001000860998C723A83707F2406244D2449D
:10CEA0004249B249224A924A056182808D2081B569
:10CEB000B3064701B387F64049B583274900BE99B9
:10CEC00029BF23A80408B7E700E03707001023A014
:10CED000E720E1B7B727002083C747A89DC3B7273E
:10CEE000002083A787C685C3B7270020238107A218
:10CEF000B727002083A707D337071000D8C70547F7
:10CF0000B8DB05458280170302E0670083917971E1
:10CF100026D206D622D44AD04ECE52CC56CA5AC8B1
:10CF20005EC68347550303447513AA843E94137465
:10CF3000F40F9307400263F687001304B4FD1374E3
:10CF4000F40F03AA841383AAC413A38B841222862A
:10CF50005285D68597C002E0E78040C6058915E571
:10CF600003CBD41201498149337B6403930B5002F4
:10CF70004A865285D68597C002E0E78020C405899D
:10CF800015C5639169031374F90F238B8412B25092
:10CF9000225492540259F249624AD24A424BB24B4D
:10CFA000456182808509E20993D989410509E31128
:10CFB00079FDE1BF8327850903560504797193D66E
:10CFC0000701BD8EC206C182358E13577640935736
:10CFD0005640898B058B5D8F93573640918B5D8FC3
:10CFE00093571640A18B5D8F93171600C18B5D8FF1
:10CFF0009317360093F707025D8F931756009355EA
:10D00000860093F707041E065D8F1376F60F518F87
:10D0100093D7554013D63540118A898BD18F13D6BB
:10D020007540D18F13D61540218AD18F13961500E4
:10D03000418AD18F1396350013760602D18F13964D
:10D040005500137606049E05D18F93F5F50FCD8F0D
:10D05000A20745465D8F3307C70222D42A8426D211
:10D0600052CC56CA032A8413832AC4135AC806D63C
:10D0700036974207418393577740135557400989A4
:10D08000858BC98F135537401189C98F13551740A8
:10D090002189C98F131517004189C98F13153700CE
:10D0A00013750502C98F1315570093558700137523
:10D0B00005041E07C98F1377F70FD98F13D5354095
:10D0C00013D755401189098B498F13D57540498F66
:10D0D00013D515402189498F139515004189498F32
:10D0E0001395350013750502498F13955500137577
:10D0F00005049E05498F93F5F50F4D8F2207D98FB3
:10D10000B387C7024AD04ECE5EC662C4B697C20786
:10D11000C18313D7774013D557400989058B498FB1
:10D1200013D537401189498F13D517402189498F6D
:10D13000139517004189498F139537001375050220
:10D14000498F1395570093D58700137505049E07E3
:10D15000498F93F7F70FD98F13D5354013D7554023
:10D160001189098B498F13D57540498F13D5154007
:10D170002189498F139515004189498F13953500F1
:10D1800013750502498F13955500137505049E0507
:10D19000498F93F5F50F4D8F2207D98FB387C702BB
:10D1A000130650025285D685B697BD8E939406011C
:10D1B000C18033F6C402137BF60F97C002E0E7800C
:10D1C000E09F05890DED8347D41201498149B3845D
:10D1D0009702130C5002C1804A865285D68597C0AB
:10D1E00002E0E780A09D0589937BF90F11C5638656
:10D1F0003403850993F9F90F0509E31F89FD230B12
:10D200006413B250225492540259F249624AD24AEB
:10D21000424BB24B224C456182805E8BCDB70111EF
:10D22000B727002022CC03A407C926CA4AC84EC685
:10D2300006CEAA8413092500854915C083C71400AA
:10D2400003473400858B6304F700405CFDB7194643
:10D25000930544004A85EFF0AFB3E31835FF22850C
:10D26000F2406244D2444249B24905618280411190
:10D27000B727002022C403A407C926C24AC006C695
:10D2800093042500054901E82285B24022449244D6
:10D29000024941018280A6851305A402972002E07D
:10D2A000E780600EE30225FF405CF1BF4111B72724
:10D2B000002022C403A407C926C24AC006C693049C
:10D2C0002500054901E82285B240224492440249E2
:10D2D00041018280A6851305A401972002E0E78022
:10D2E000800AE30225FF405CF1BF0111B72700204F
:10D2F00022CC03A487C826CA06CE2AC42EC68544DB
:10D3000019E40145F2406244D244056182808347BA
:10D31000910003471400858B6304F7000044CDB7E8
:10D3200019469305A10013052400EFF06FA6E3173B
:10D3300095FE0545C1BFB726002003A786D0011181
:10D340004AC81C5F4EC606CE998322CC26CA858B5E
:10D350003689B7290020ADCF930700063724002077
:10D360001CDF930744D183C76700130700089304A9
:10D3700044D16319F70083A749D09C4393F707046E
:10D380002383F400834744D193F7070489CFB72759
:10D39000002083A747A2829788C8834744D193F788
:10D3A000F70B230AF4D083C7440093F707048DE3F7
:10D3B0008547A382F400B727002083A707D3370748
:10D3C000020098C7130700FC2382E400D844F8D376
:10D3D000032789D01C5F9183858B95C31C5F93E7DE
:10D3E00007011CDFB727002083A707D3054723A227
:10D3F0000706B7270020938747D12382E70083A73A
:10D4000049D0D8430583058B19C7D843759BD8C32A
:10D41000D843799BD8C3F2406244D2444249B249CE
:10D4200005618280093F73002030B7270020B726AE
:10D43000002003A607D3938746D103C746D1058BA7
:10D4400011C723820700A3820700828003C7170049
:10D45000058B65FB785275F303C75700EDB7372787
:10D460000020032887D0832788039583858BC1E319
:10D4700011C683270803BD832300F60085CA8327CE
:10D4800087D0985B4607935767016356070093E779
:10D4900007C0C207C18303970600C207C18709C737
:10D4A000BA970947B3C7E7022390F6009DCD83459D
:10D4B000150085CDB7270020938747D183C7670024
:10D4C00013879500894593F7070485C33A958347E9
:10D4D00005000547994593F6F7066398E600E207CD
:10D4E000E187814563D30700B9452E858280854554
:10D4F000EDBF411122C406C63724002026C20327EF
:10D5000004D359E5AE877453FDFEB72400209384FD
:10D5100044D13E85B28523810400974002E0E78034
:10D52000C0A1B727002083A787D0B7068000984303
:10D53000558F98C3D857719BD8D7832704D3A3821C
:10D540000400A3800400094798C3B7F700E003A7CD
:10D5500007D16D9B23A8E7D003A707D15D9B23A824
:10D56000E7D073005010832604D3B7270020938799
:10D5700047D103C72700058B19E703C73700058B81
:10D5800041C323820700B240224492444101828079
:10D590008D47631FF500B727002083A787D0B70604
:10D5A00080009843558F98C3D857719BD8D765BFD3
:10D5B0008547E31AF5FA54478177FD17F58F5CC765
:10D5C0000F100000032704D3B7070200130600F86A
:10D5D0001CC7B7270020938747D12382C700B727EE
:10D5E000002083A787D09C439D83858B6397A700EA
:10D5F000930760197CD354C7BDB79307E01BDDBF09
:10D60000F85225FB49B7411122C437240020832753
:10D6100004D306C6D8479316D70063D306029847AB
:10D620009316D70063DE06007D57B8D73727002052
:10D630001307079E544F850654CF3707040098C739
:10D6400098470D83058B0DC337270020130747D15B
:10D650008346270093E616002301D700930600F8BF
:10D660002302D700214798C79847058B09CF372752
:10D670000020130747D18346170093E61600A30046
:10D68000D700054798C798470983058B09E798474E
:10D690000583058B05CF37260020930646D1A3824C
:10D6A000060098470983058B75CB034746D113675E
:10D6B0001700230AE6D0114798C737270020832692
:10D6C00087D0D856719B13671700D8D69847931602
:10D6D000F70063D4060237270020930687BD03C6F0
:10D6E000C606130787BD418A71C203C7C606136702
:10D6F00007022386E606416798C798479316E70016
:10D7000063D2060237270020130747D1834647001C
:10D71000E206E18663D5060085462302D700370777
:10D72000020098C798479316C70063D306023727AD
:10D730000020130787BD8346D706858AC1CA834662
:10D74000D70693E62600A306D7063707080098C732
:10D7500098479316B70063DF06023707100098C793
:10D76000B727002083C747A895C7B727002093870E
:10D7700047D183C777001547630EF700B72700200E
:10D7800083A7C7CF91C38297032704D3B7071F008E
:10D79000BD075CC7B24022444101828003C7360006
:10D7A00013671700A381E600094739B78346C70608
:10D7B0000946BD8A6388C6008346C7060D46BD8AF2
:10D7C000E39BC6F291462306D70635B78346D706B4
:10D7D000918AA5DE8346D70693E68600ADB7372744
:10D7E0000020B7260020138646D3130747D583476A
:10D7F000D7008345B601484AAE97FD8BB355F50077
:10D80000A300F600A306F700858995E903471701F1
:10D81000814613080002B3F7E7020147B355E5005C
:10D8200085899378F70F89C96395D700A3001601FE
:10D830008280850693F6F60F0507E31107FF8280C5
:10D84000B7270020938747D183C7570093F7F70F77
:10D85000D1EBB727002083A747A2411122C44AC0B9
:10D8600006C626C2829737290020930749D58047EC
:10D87000130949D56302A40663688504018DB724A2
:10D880000020938744D383C7A70113545500938482
:10D8900044D36363F404A13783C7A4010327890039
:10D8A0009396570036971D8C2324E900E375F4FE08
:10D8B000224403C51400B24092440249814541010B
:10D8C000174302E0670063D2B727002083A7C7A7EA
:10D8D00033848740229565B7B2402244924402497E
:10D8E000410182808280B727002083A747A20111CF
:10D8F00022CC26CA52C406CE4AC84EC68297B72446
:10D900000020938744D58047014A6301A40693848D
:10D9100044D563668506018D37270020930747D3DA
:10D9200083C7A70113545500137AF501130947D390
:10D93000636BF402B7290020938989A74D3583468C
:10D94000A90103A8840083A54900139756004297B4
:10D95000158C3A86636407016364B7003306B740E9
:10D9600090C4E37DD4FC1604336A4401F24062445F
:10D970005285D2444249B249224A05618280B72782
:10D98000002083A7C7A733848740229571B7B727A4
:10D99000002003A707D38967938707F47CD3B727B1
:10D9A000002083A747D883A607091396560063581B
:10D9B000060083A6070913966600634406007453A5
:10D9C000FDF28280EFE0FFDA73000000000000004B
:10D9D000970200009382222C03830200238002001E
:10D9E000630F0300F32510342EC0970500009385C4
:10D9F000A5FD73901534EFF01FC17300203086DC55
:0CDA0000EFF07FC0E650828000000000C4
:10DA0C00B72700203727002083A7879D0327079D72
:10DA1C0001456313F700828083D6670081E683D6C5
:10DA2C00470036959C43F5B7B727002083A507A37D
:10DA3C0037270020938707A313860522232CC79C26
:10DA4C0003D74700938785FFB72600204111BA976B
:10DA5C00056523A8F69C06C61D059356370063740E
:10DA6C00E500930600203307D60037250020232A33
:10DA7C00E59C23A0E522E1162312D6002313060011
:10DA8C001CC3998FE1172312F700231307008D3F56
:10DA9C00B240B72700202393A79E41018280B7276D
:10DAAC000020B726002083A7879D03A6069D2A8702
:10DABC00B305B5406314F6003A8529A89386870010
:10DACC009C43E369D7FEE377F7FE2E85E3E4D5FEAE
:10DADC00E3F2F5FE828023AC05FE1C4191E70100C8
:10DAEC0001000CC18280BA8703A787FF6DFF23ACAE
:10DAFC00B7FE8280411122C426C237C4004006C63C
:10DB0C008324C420232604200F10000009E92326B7
:10DB1C0094201545B240224492444101828003472F
:10DB2C00E5FF9307F00F6306F700232694201145B9
:10DB3C00D5B79720FF1FE780205E01452326942050
:10DB4C00D1BF411126C24AC0B7C4004006C622C488
:10DB5C0003A9C42023A604200F10000009E923A662
:10DB6C002421B240224492440249410182809565AD
:10DB7C00938505D0C98D2A842105C2054205C18132
:10DB8C0041819720FF1FE780204B01CDFD572320BB
:10DB9C000500231285002303F50023A6242121056B
:10DBAC00C9B723A6242101456DBF411126C2B7C7B1
:10DBBC00004006C622C483A4C72023A607200F104A
:10DBCC000000372700208325C79D01448146AE877E
:10DBDC0089E709E8A165A52D25A003C6E7FF631B0E
:10DBEC00A60215CC032684FF631DB402232EC79C0A
:10DBFC007D57232C04FE230FE4FEE9DFA1659D2C49
:10DC0C002285B2402244B7C7004023A697209244F5
:10DC1C004101828011E0BE8683A787FF55BF3E84F9
:10DC2C00E5BF23ACC6FEE9B7411126C24AC0B7C452
:10DC3C00004006C622C403A9C42023A604200F104A
:10DC4C00000089E523A62421154515A0B72700203F
:10DC5C0083C7179E2A842E856375F400894763EE6B
:10DC6C008700493DB7C7004023A627210D45B24088
:10DC7C002244924402494101828083A785FF99E79F
:10DC8C0003C7E5FF9307F00F6308F700A535B7C787
:10DC9C00004023A627214DBF37250020238F85FE6A
:10DCAC001305C59D0D3DA1652285E922014523A6DD
:10DCBC00242175BFB727002023AE079C8280B7278D
:10DCCC00002083A7C7A299E33E85828003D7270053
:10DCDC006316B70003C70700E308A7FEDC47E5B7E8
:10DCEC00BDCD797122D406D626D24AD04ECE01446F
:10DCFC004147B3D78540858BB1CF1205314722956B
:10DD0C003305E502B727002003A9C7A68544B394C1
:10DD1C008400C204C180BE892A990327090011C757
:10DD2C00032549002EC60297B24531473304E4025D
:10DD3C0083A7C9A63E941C4489E72320090023220B
:10DD4C000900B2502254A58D02599254F2492E85E5
:10DD5C00456182800504E31EE4F88144DDB72E851D
:10DD6C00828041111397050122C406C626C24AC0FF
:10DD7C0041872E84635E07000D3D11C1A53BA16751
:10DD8C003D8C2285B240224492440249410182805A
:10DD9C00EDD9AA8701474146B356E440858A9DCA0E
:10DDAC009207BA97B146B387D702B726002003A9CA
:10DDBC00C6A68544B394E400C204C1803E9983276F
:10DDCC00090003254900829723200900232209001A
:10DDDC00258C45BF0507E311C7FC8144D5BF411114
:10DDEC0026C2B7C7004006C622C483A4C72023A6F8
:10DDFC0007200F100000B727002083A707A53724A2
:10DE0C0000201304848891C782971C403E9508C05B
:10DE1C0031A0B727002083A747A2FDF71C40374746
:10DE2C0003001307D73FB387E70237A72600130772
:10DE3C0037ECB240BA971CC0B7C7004023A6972056
:10DE4C0008402244924441018280B727002083A7D6
:10DE5C0047A7411122C406C6372400201304049E90
:10DE6C0089C782975C483E9548C84848B2402244CE
:10DE7C0041018280B7C7004083A6C72023A6072094
:10DE8C000F100000372700200347179E6372E5022E
:10DE9C003726002013171500032586A23A95035741
:10DEAC000500D98D2310B50023A6D720014582800B
:10DEBC0023A6D7200D458280B7C7004083A6C72074
:10DECC0023A607200F100000372700200347179EBA
:10DEDC006374E5023726002013171500032586A26C
:10DEEC0093C5F5FF3A9503570500F98D2310B5003E
:10DEFC0023A6D7200145828023A6D7200D458280FA
:10DF0C0001114AC837C7004006CE22CC26CA4EC6DD
:10DF1C0052C40329C720232607200F100000130723
:10DF2C0005FF1377F70FFD4763E1E70AB146B30628
:10DF3C00D502B727002003A7C7A636971C43D1C725
:10DF4C009354450005443D893315A4001314050171
:10DF5C004180AE892685A2859D332A8A31C9A28546
:10DF6C002685993FB727002083A747A2B724002016
:10DF7C00938484A7829783D784002A848146B385AF
:10DF8C00370313060064B3B7370313850532B33573
:10DF9C00B500BE95EFE0511DB30785003E87D44018
:10DFAC0063E4A70063E4D7003387D7402324EA0057
:10DFBC00B7C7004023A627210145F2406244D24452
:10DFCC004249B249224A05618280B7C7004023A664
:10DFDC0027210945DDB7797126D252CCB7C4004050
:10DFEC0006D622D44AD04ECE56CA5AC85EC603AA0A
:10DFFC00C42023A604200F100000B727002083C7DD
:10E00C00179E6378F500B727002083AB47A2639770
:10E01C000B00B7C7004023A6472199A03729002041
:10E02C00130989A7AE8A032B490083558900B7478A
:10E03C0036FE938707C83E9BB387C5022A84B289F4
:10E04C008146B3B5C50213850732B337F500130605
:10E05C000064BE95EFE051116370AB0223A644211E
:10E06C000145B250225492540259F249624AD24AA2
:10E07C00424BB24B45618280829B83558900AA84B6
:10E08C0013060064B38735038146B3B53503138596
:10E09C000732B337F500BE95EFE0110DB3079500CD
:10E0AC00BE840327490063E4A70063E4E700B3845C
:10E0BC00E740D6852285213101C904C5B7C7004088
:10E0CC0023A64721054571BF936504F0C205C181A4
:10E0DC0041459720FF1FE78020F611E9B727002064
:10E0EC0083A707A69DD7A285114582971DB7372711
:10E0FC0000208327C7A28DE32326A7A285472326CA
:10E10C00050004C52311550123008500A300F5006B
:10E11C002322050065B7BA87D84775FFC8C7F9BF72
:10E12C0079714ECEB7C7004006D622D426D24AD03B
:10E13C0052CC56CA5AC85EC662C466C26AC083A9AB
:10E14C00C72023A607200F10000025C141443689A3
:10E15C00B28A2E8AAA84B14C372B0020054D130CA1
:10E16C000003B30B94030327CBA65E971C43B9EFB4
:10E17C009375F400B315BD0013554440C205568683
:10E18C00C1811375F50F813D31C18327CBA6DE9775
:10E19C0084C323A247016304090023008900B7C785
:10E1AC00004023A63721014521A023A6372109458C
:10E1BC00B250225492540259F249624AD24A424B0A
:10E1CC00B24B224C924C024D456182800504E31AFD
:10E1DC0084F9B7C7004023A637212145D1BF0111CF
:10E1EC0022CC26CA4AC84EC6B7C7004006CE03A9E1
:10E1FC00C7202A84AE89B28423A607200F10000002
:10E20C00D93B2285CE85653C2A8405C5B7270020DD
:10E21C0083D507A8130600648146B3879502B3B56E
:10E22C00950213850732B337F500BE95EFE0C17345
:10E23C0048C013351400F2406244B7C7004023A60F
:10E24C002721D2444249B2490E0505618280011151
:10E25C0022CC4AC84EC6B7C7004006CE26CA83A9F0
:10E26C00C7202A892E8423A607200F100000813C8A
:10E27C00AA8419C123110500A2854A853539B7270F
:10E28C00002083C7079E63992701B727002003D777
:10E29C0007A2598C239087A2B7C7004023A6372129
:10E2AC00014591E01945F2406244D2444249B249D9
:10E2BC0005618280011126CA4AC8B7C4004006CE47
:10E2CC0022CC4EC603A9C42023A604200F100000A4
:10E2DC009307F00263E6A704B1473304F502B729AC
:10E2EC00002083A7C9A6A2979C439DCB9377F500EA
:10E2FC008545B395F500C205C1811181893F83A77E
:10E30C00C9A60145A29723A0070023A2070023A6B4
:10E31C002421F2406244D2444249B24905618280D0
:10E32C00B7C7004023A627210945E5B7411126C2EE
:10E33C0006C622C4B7C7004083A4C72023A6072063
:10E34C000F100000AD3A19E90145B2402244B7C79D
:10E35C00004023A69720924441018280B7270020D9
:10E36C0083A747A200458297B7270020938787A7EA
:10E37C006368A402D843B74636FE938606C83305B5
:10E38C00A4403697E372E5FC13070064B335E5024D
:10E39C0003D6870081463305E502EFE0E15C75B7F3
:10E3AC00D8433A94C1BF0111680006CE22CC26CACC
:10E3BC00EF10E159FD576309F50AB247CDC3B727F2
:10E3CC000020B72400209384049E138787A79448C9
:10E3DC005843138487A76386E602B727002083A7D8
:10E3EC0047A28297B247984863F3E7003E87B3078A
:10E3FC00A7003E85544063E4E70063E4D70033850F
:10E40C00D74037240020930744D19C4F130444D1A8
:10E41C0099CBB727002083A647D83707CDFF7D17A8
:10E42C009C46F98F9CC609E5B727002003A5C7A712
:10E43C00B727002083A747A5829719E51C4C85C3F5
:10E44C00EF60916DEF60616D1C4C91CBB727002094
:10E45C0003A747D8B70633001C47D58F1CC7F2401B
:10E46C006244D24405618280B72400203724002006
:10E47C009384049E130484A794485840B727002023
:10E48C0083A747A26393E60282975440B74736FEB0
:10E49C00938707C8B6973387A7003A856364F7005C
:10E4AC00E361D7F63305D740A9BF8297944858400B
:10E4BC00B387A6003E8563E4D700E3E4E7F4338535
:10E4CC00E74081B74111B727002006C623AAA7A6AB
:10E4DC000295B240B727002023ACA79E014541010D
:10E4EC008280914763E9B700B72700208A0593879C
:10E4FC00C7A0BE9588C18280B727002023A8A7A6F5
:10E50C0011C5B727002005472381E7A28280B727D2
:10E51C00002023A607A2B727002023AA07A6B72707
:10E52C00002023A207A237250020B7270020411185
:10E53C00238107A25146B727002081451305C5A0AA
:10E54C0006C623A807A622C426C23724002097207B
:10E55C00FF1FE78000D21305049E1306800281453D
:10E56C009720FF1FE780E0D0EFF00FCCB7270020FB
:10E57C0083C757A41304049E854513D527008D8BA0
:10E58C003E958D473305F5029947B7240020390590
:10E59C001375F50F2301A4003305F50213050524AB
:10E5AC009720FF1FE78040A923A6A4A649C10346D4
:10E5BC002400994781453306F6021306062497205A
:10E5CC00FF1FE78000CB83A7C4A603472400B72412
:10E5DC000020938707240A0723A4F4A0BA973727AF
:10E5EC0000202324F7A2EFF0EFECA92183471400BD
:10E5FC0083A684A037E600001397270036971306EE
:10E60C00C6CE10C3138717001377F70F0A0737E628
:10E61C00000036971306E6D610C313873700890718
:10E62C0093F7F70F8A07A300E400B69790C3B240A4
:10E63C002244924441018280372700201307079E11
:10E64C00834717008346270063F0D702B7260020C4
:10E65C0083A686A013861700A300C7001397270074
:10E66C00369708C33E8582809307F00FE5BF1C41A7
:10E67C006381071041777D8FB70600208947631BA4
:10E68C00D70E035745007DC7411126C21946AA84EF
:10E69C009305F00F610506C622C49720FF1FE78083
:10E6AC0080CF05478D476300E50C9C4491C7D85833
:10E6BC00994755CB985C45CB372400201306C003F3
:10E6CC008145130504A39720FF1FE78080BA13062A
:10E6DC00C003A685130504A39720FF1FE780C0B2D3
:10E6EC00930704A303D7C70009E713070010239669
:10E6FC00E70003C7E70001E705472387E70003D7D7
:10E70C00070101E76D472398E70003C7F70001E70E
:10E71C001547A387E70003C7270101E705472389AE
:10E72C00E70003C7370109E703C7F700A389E70030
:10E73C0003C7470101E75547238AE70003C7640174
:10E74C0009E71307C003238BE7009C5791C78297F7
:10E75C00B72700202394A79EB72700207D57A384BA
:10E76C00E7DE75338147B240224492443E85410135
:10E77C00828089473E85828001114AC83729002052
:10E78C00832789A706CE22CC26CA52C456C24EC6AF
:10E79C008297130A0064B3354503130989A7835A7A
:10E7AC0089008146568633054503EFE0E11BB72708
:10E7BC0000201387079E004FAA840145630694022C
:10E7CC009389079E33858440636E9400032549002A
:10E7DC0056868146B335AA023305AA02EFE0C1186A
:10E7EC00018D269523AC9900F2406244D2444249F3
:10E7FC00B249224A924A05618280011122CC2E84B0
:10E80C00B7D502000A854146938545DC06CEEFE07C
:10E81C00214F180806043A94B7270020035504FF2B
:10E82C0083D727A8F2406244AA9737450F001305F7
:10E83C0005243355F50205618280B727002083D764
:10E84C0027A851471D45637CF70279471945637822
:10E85C00F7021307200315456373F7021307B0047F
:10E86C001145637EF700130740060D456379F700E9
:10E87C001307600909456374F70013B5B70F82805D
:10E88C00011122CC06CE2A842EC6EFF04FD5B2450C
:10E89C00F240818D33A5A502229562441375F50FC4
:10E8AC0005618280011122CC06CE2A842EC6EFF09F
:10E8BC000FD3B245F240818D33A5A5022295624457
:10E8CC004205418105618280011122CC06CE2A8449
:10E8DC002EC6EFF0CFD0B245F240818D33B5A502F4
:10E8EC002295624405618280B7270020138707A315
:10E8FC0018572DC3411122C426C24AC006C613891B
:10E90C0007A30297B72700201387079E035787009A
:10E91C002A849384079E0DCBBA876373A700AA87BA
:10E92C00C207C183BA866373E400A286C206C182A1
:10E93C00958F5147635AF7008327C90291C3829779
:10E94C00EF60310723948400B24022449244024980
:10E95C00410182808280011122CC3724002006CE16
:10E96C0026CA4AC8930784A783C7C70081CB05452D
:10E97C00F2406244D244424905618280B7240020AF
:10E98C00938704A3DC57130984A7AA85938404A353
:10E99C0081C72AC68297B245B5C19C41E9DBDC41EF
:10E9AC00F9D783D78500E1D783D7A500E9D34146B2
:10E9BC00130584A79720FF1FE7800085032784A7F2
:10E9CC00B727002023A2E7A283C774018DE3035568
:10E9DC0089009307805737460F003305F50213065D
:10E9EC00062481468145EFD03178A38BA40037E50E
:10E9FC00000013054578F93401459DBFB727002069
:10EA0C009387079E23AE0700B707002093874773B1
:10EA1C00232CF4A6B78732007D57938727A1232494
:10EA2C00F9002322E90023060900B7C7004023A4FC
:10EA3C00E72669B7011122CC37240020930704A3E1
:10EA4C00884706CE26CA4AC801E90545F240624409
:10EA5C00D244424905618280130404A35C58F5D763
:10EA6C00185C65D77000854582971844B247E30E51
:10EA7C00F7FC0355C4009305E004B724002097105D
:10EA8C00FF1FE780605B1387049E08D39384049E6A
:10EA9C004DDD0356C4009305F00F01499710FF1F7D
:10EAAC00E780207D8347E4009050634DF900328568
:10EABC009710FF1FE7804066014523A0040223A2A4
:10EACC00040269B78355C4000844185CB387250356
:10EADC00898105093E9508C20297E9B701114EC616
:10EAEC00B7290020938709A39C4726CA4AC852C459
:10EAFC0006CE22CC56C25AC02A8AAE843289638D85
:10EB0C00071E938909A303A749036304071213077C
:10EB1C00F01F6362A712372400201307049E832A78
:10EB2C0007021304049E639A0A0803D5C90095656D
:10EB3C00938515E09710FF1FE780005008D02A86B8
:10EB4C006DC983D5C90083A7490303A589008981B1
:10EB5C00829783A78900832A04025CD089476316B5
:10EB6C00FA08C1476397F40C83D5C9009147938584
:10EB7C0005FCB3C5F5028A05D69503C72500930796
:10EB8C00A0056314F70A83D705006390470B4A85E9
:10EB9C00268691059710FF1FE78000671C5056854D
:10EBAC00639357130145F2406244D2444249B2493F
:10EBBC00224A924A024B056182805850E380E7FA60
:10EBCC0003D5C9009565938525E09710FF1FE78055
:10EBDC00A046AA8A39CD83D5C9002A8683A74903C2
:10EBEC0003A589008981829795BF8D47631BFA0025
:10EBFC00C1476390F40483D5C900938545FDF19911
:10EC0C00A5BF91476318FA006395440383D5C900E7
:10EC1C00A115F5B793070010631DFA00A14763EA2D
:10EC2C00970083D5C900C115D9BF1C505685639078
:10EC3C00570D29458DBF9D6A637C5509930A05E0E4
:10EC4C001947B3CAEA0203D7C900372B0020B38A8D
:10EC5C00EA02BE9A93070B9EDC53130B0B9E639533
:10EC6C00570103240B021DE003D5C9009305E004F2
:10EC7C009710FF1FE780403C2A8445DD83D5C900EF
:10EC8C0083A749032A868981568582979145130764
:10EC9C00A005898193972500A29783C627006393CB
:10ECAC00E60483D60700639C460385058A05268601
:10ECBC00A2954A859710FF1FE780005583270B020A
:10ECCC00E38287EE22859710FF1FE780E044D9BDD1
:10ECDC0021677917E36FA7F4B30A5541ADB783C524
:10ECEC00370045BF83270B02E38587F422859710F5
:10ECFC00FF1FE780604235BFB727002083A507A020
:10ED0C008DD991479306A0058983139727002E97D9
:10ED1C0003462700E31FD6F003560700631C460189
:10ED2C0085078A072686BE954A859710FF1FE780C0
:10ED3C00A04D8DBD83473700C1BFB72700209387F7
:10ED4C0007A3984729C3985F1DCF8546631DD5023D
:10ED5C00411122C4372400201304049E105006C60F
:10ED6C0019CE83D5C7004850898102970850971057
:10ED7C00FF1FE780603A2320040223220402B240E2
:10ED8C002244410182808280011122CC3724002050
:10ED9C00930704A356C283AA870026CA4AC84EC644
:10EDAC0006CE52C42A89AE84B289130404A3638CA0
:10EDBC000A1C1C5C99EB2945F2406244D24442493E
:10EDCC00B249224A924A056182805C58EDD793077A
:10EDDC00F01F63E8A70C372A002093070A9E9C5368
:10EDEC00130A0A9EB9C7084483274A02639FA704E3
:10EDFC0089476317F906C147E39FF4FA0355C4002A
:10EE0C009147130505FC3345F5029317250003259F
:10EE1C000A022686CE853E959307A0052301F500B0
:10EE2C002310250111059710FF1FE780E03D0145D8
:10EE3C0061B70355C4009305E0049710FF1FE780EA
:10EE4C00A01F2320AA0245F1BDB78355C4005C580E
:10EE5C0003260A02898182971C442322FA0249BFA5
:10EE6C008D47631CF900C147E397F4F40355C400C4
:10EE7C00130545FD9377C5FF59BF91476318F900FA
:10EE8C00E39B24F30355C4002115EDB79307001041
:10EE9C00E313F9F2A147E3E097F20355C4004115DF
:10EEAC00D1BF9D676378F506930705E01947B3C793
:10EEBC00E7020357C400372A0020B387E702BE9A43
:10EECC0093070A9E9C53130A0A9EA1CF83274A02DA
:10EEDC006395570703250A0291461308A00593056D
:10EEEC00F00F93D72600139727002A970346270085
:10EEFC00631606078358070003463700639C2805F2
:10EF0C00B306D64063C6960485078A072686CE8547
:10EF1C003E9511BF21677917E36FA7E8B307F5405A
:10EF2C0049BF0355C4009305E0049710FF1FE78009
:10EF3C00A0102320AA0259F9BDBD8355C4005C580A
:10EF4C0003260A0289815685829723225A0359B7D0
:10EF5C002310B70093160601C18261B70356C40093
:10EF6C00B38596009105130606FCE3F6C5E41386FB
:10EF7C003400719A1106B296230107012310270160
:10EF8C00A301D70051B7372A002093070A9E9C5340
:10EF9C00130A0A9EA9C303250A0291461308A00569
:10EFAC009305F00F93D72600139727002A97034653
:10EFBC00270063140605835807000346370063983F
:10EFCC002801B306D640E3D196F42310B70093166C
:10EFDC000601C182C1BF0345E4008357C4009305F9
:10EFEC00E0043305F502420541819710FF1FE780CD
:10EFFC00A0042320AA0245F17DBB0356C40083451F
:10F00C00E400B385C502338696001106E3E5C5DA44
:10F01C00B9BF0145828083C705002300F50083D763
:10F02C002500A300F50083D72500A1832301F5005B
:10F03C0083C74500A301F50011458280B727002046
:10F04C0023AE078AB727002023AC078A828029C108
:10F05C00411126C206C622C4AA8401458DC52E8440
:10F06C00B7D5020022854146938545DD9710FF1FD9
:10F07C00E780801983C7040005452306F40083C785
:10F08C001400A306F400B240224492444101828051
:10F09C0001458280011122CC26CA06CE0947AA84DA
:10F0AC0032846381E50441468147639BC500638FCD
:10F0BC00E6006397B6000DA841478147638EE600D2
:10F0CC00F2406244D2443E85056182808A85228565
:10F0DC00BD3F41468A8519A88A85953F41468A8558
:10F0EC00228531A0E39AB6FC2E86A2852685971040
:10F0FC00FF1FE7806022AA87E1B7B727002023AC67
:10F10C00A78A8280B727002023AEA78A82800111AC
:10F11C0022CC0354650006CE26CA4AC84EC641C04E
:10F12C0083298500AE842A8803C9090081471317F7
:10F13C008901618763550702B147054563FA870466
:10F14C005114420403552800418033878900A2865C
:10F15C004E868545EFA03019B337A00085077D1486
:10F16C0013556900420405891379F9034180238002
:10F17C00F400A380A400238124012392840001477E
:10F18C0019C01387190098C409476383E700014528
:10F19C00F2406244D2444249B2490561828005453D
:10F1AC00C5BFC167F917630AF502D94763F7B70200
:10F1BC00011122CC2EC606CE2A84EF703056B245F1
:10F1CC006368B50022856244F24005616F908079D6
:10F1DC00F240624405450561828005458280C16725
:10F1EC00F9176314F5006F707053411106C6EF9058
:10F1FC00206611E15D45B2404101828091476394E4
:10F20C00F502834705002300F600834725000347DA
:10F21C001500A207D98F2311F6008347350001454D
:10F22C002302F6008280114582804111814522C45F
:10F23C0026C206C6AA8405252A8409E9B727002018
:10F24C0083A7878B81C7F945268582972285B24093
:10F25C00224492444101828039714ED656D25AD002
:10F26C0006DE22DC26DA4AD852D4AA8A2E8BB28940
:10F27C0041EF36C6AD379145EF70105CAA844D490D
:10F28C002DC9B246054A238034010544630A0B009C
:10F29C00B68513851400029B0505131405014180E6
:10F2AC00E20993D9894163D30902C1455685EF9090
:10F2BC006068654905E933868400A2852685EFA040
:10F2CC00A0472A8905E131044204418091472C086A
:10F2DC005685231CF10026CE231D8100EF80107172
:10F2EC002A8901C963070A0026859710FF1FE7804A
:10F2FC00A0E2F25062544A85D2544259B259225A71
:10F30C00925A025B21618280BA84014AADBF01111D
:10F31C0022CC26CA4AC84EC606CE2A893284B68961
:10F32C00253FAA840DE1B727002083A7C78B81CF87
:10F33C0005476317E40003C4090005041374F40FB4
:10F34C00A2854A858297F240624426854249D2447E
:10F35C00B24905618280AE86B7F5000001470546CB
:10F36C00938525026DB783D705002300F50083D75D
:10F37C000500A183A300F5000945828083D7050011
:10F38C002300F50083D70500A183A300F50083D7E4
:10F39C0025002301F50083D72500A183A301F500E7
:10F3AC001145828083D705002300F50083D7050023
:10F3BC00A183A300F50083D725002301F50083D793
:10F3CC002500A183A301F50083C755002302F50096
:10F3DC0083C76500A302F50003D585001905420516
:10F3EC004181828083D705002300F50083D7050077
:10F3FC00A183A300F5000945828083D70500230073
:10F40C00F50083D70500A183A300F50083D7250061
:10F41C002301F50083D72500A183A301F500114535
:10F42C00828003D54500060542054181828083D741
:10F43C0005002300F50083D70500A183A300F50088
:10F44C0003D52500090542054181828083D705003B
:10F45C002300F50083D70500A183A300F50083D713
:10F46C0025002301F50083D72500A183A301F50016
:10F47C0003D54500110542054181828083C70500F3
:10F48C002300F5000545828083D70500411122C475
:10F49C0006C62300F50083D705002E841105A18331
:10F4AC00A30EF5FE83D725009505230FF5FE83D714
:10F4BC00D5FFA183A30FF5FE03C6F5FF9710FF1F21
:10F4CC00E78080D403454400B24022441105410139
:10F4DC0082808947639CF50083471500034705002C
:10F4EC000145A207D98F2310F60082801145828036
:10F4FC0003D70500D94763FEE702011122CC06CEE3
:10F50C002EC62A84EF709021B24683D70600636D15
:10F51C00F50022856244F240B7F500000147094628
:10F52C009385253705610DBBF240624409450561A1
:10F53C0082800945828091479DC583460500FD1553
:10F54C00C2058547C1816392F60213D725008D89C8
:10F55C00914791E9914701CB05052301D600231072
:10F56C00E60048C281473E85828009479147E39C6B
:10F57C00E6FEC94733D7F502B3F5F502D1BFAE8627
:10F58C00B7F500000147114693858538F1B193F723
:10F59C00350091EB8981914789C52310B60048C28B
:10F5AC0081473E8582809147EDBF03C7450089475F
:10F5BC00631AF702011122CC2A84C84506CEAE8606
:10F5CC00014719C52EC69D45EFE06FCDB2462A877F
:10F5DC0022856244F240B7F5000019469385053B3D
:10F5EC0005619DB90945828099E111458280834767
:10F5FC00050005472311F600E379F7FEFD1593F599
:10F60C00F50F33D7F502B387E702E390F5FE050556
:10F61C0048C22310E6000145828083C74500094794
:10F62C00AE866385E70041476399E700B7F50000B4
:10F63C00014721469385454905B109458280231030
:10F64C00B60091E1014548C201458280AE86B7F50E
:10F65C000000014729469385053FFDBE2310B600E7
:10F66C0091E1014548C201458280AE86B7F50000A4
:10F67C000147314693856540C5B62310B60091E12C
:10F68C00014548C20145828003D74500854763FD8B
:10F69C00E702011122CC2A84884106CE0DC12EC668
:10F6AC008545EFE0CFBF2A8722856244B246F240FF
:10F6BC00B7F5000039469385E542056171BEF2400D
:10F6CC0062440945056182800945828091479DC548
:10F6DC00034705008D46914763F2E602FD15C2050E
:10F6EC00C181B3C6E5023308D7026399050105054C
:10F6FC002310D6002311E60048C281473E85828044
:10F70C0083C745000947AE866385E7004147639987
:10F71C00E700B7F5000001474146938545492DBEEA
:10F72C0009458280B335B000139525008280011104
:10F73C0022CC26CA06CE03C785008547AA842E8410
:10F74C0049466310F702613C8357240049151306A0
:10F75C00200963C8A700F2406244D2440945056100
:10F76C0082800347940085476314F70013660604F0
:10F77C00484011C58D4532C6EFE06FB23246A286C5
:10F78C006244F2402A872685D244B7F5000093855F
:10F79C00A5430561D1B48D4763FFB70283471500BC
:10F7AC0003470500F115A207D98F2310F6008347F4
:10F7BC00350003472500C205A207C181D98F23114B
:10F7CC00F6002312B60089C5110508C601458280D2
:10F7DC0023240600E5BF11458280011122CC2A8426
:10F7EC00884506CEAE8611C52EC69545EFE02FABEB
:10F7FC00B2462A8722856244F240B7F5000059468A
:10F80C0093858545056189BCB335B00013952500FA
:10F81C008280AE86B7F50000014761469385854826
:10F82C0025BC8547114563F4D702834716008345F1
:10F83C000600A207CD8F2310F7009387E6FF231154
:10F84C00F70089476386F600090650C3014582809C
:10F85C0023220700E5BF0147814679468145EDBA71
:10F86C0083D705002300F50083D70500A183A300EF
:10F87C00F5000945828083C7250005472300F50064
:10F88C0003D505006397E7000A050505420541818C
:10F89C008280C9473305F502CDBF03D505000A05A3
:10F8AC0042054181828083D725002300F50003D5D2
:10F8BC00050083D725003305F50205054205418176
:10F8CC00828003D50500828003D50500828003D594
:10F8DC000500828083D725002300F50003D50500A1
:10F8EC0083D725003305F502050542054181828049
:10F8FC0083D705002300F50083D70500A183A3005F
:10F90C00F50083D725002301F50083D72500A183BB
:10F91C00A301F50003D54500110542054181828004
:10F92C0083D705002300F50083D70500A183A3002E
:10F93C00F50003D5250009054205418182808947E0
:10F94C001145639BF600834716008346060001456C
:10F95C00A207D58F2310F700828003D70500D94763
:10F96C00AE8663F9E700B705010001470D469385A4
:10F97C00C58671BA0945828011456393A6028347F7
:10F98C001600834606000145A207D58F2310F70009
:10F99C008347360083462600A207D58F2311F70034
:10F9AC00828083C725000547FD1793F7F70F636126
:10F9BC00F70483D705008DCF011122CC2A84C841CE
:10F9CC0006CE15C12EC68945EFE06F8D2A8722859C
:10F9DC006244B246F240B70501001546938525886E
:10F9EC0005616FF0DF92F240624409450561828047
:10F9FC00094582809547114563F9D706411122C408
:10FA0C0026C24AC006C683471600BA8403470600BE
:10FA1C00A2073284D98F2390F40083473600034722
:10FA2C00260093054400A207D98F2391F40089473F
:10FA3C002382F40009461385540036899700FF1F72
:10FA4C00E780807C9307A9FF2394F4009947631BFC
:10FA5C00F90023A60400B240224492440249014515
:10FA6C00410182801904C0C4FDB7828083D7050090
:10FA7C008DCF011122CC2A84C84106CE15C12EC6C9
:10FA8C008545EFE0CF812A8722856244B246F24059
:10FA9C00B70501001D469385658A05616FF03F87A8
:10FAAC00F24062440945056182800945828099478C
:10FABC006395F6048947411106C62302F700834774
:10FACC00160083460600B285A207D58F2310F700D7
:10FADC00834736008346260003464700A207D58F8E
:10FAEC00130557002311F70091059700FF1FE780BE
:10FAFC00A071B240014541018280D1471145639408
:10FB0C00F600C1474DBF828083D705008DCF011110
:10FB1C0022CC2A84C84106CE15C12EC68945EFD009
:10FB2C001FF82A8722856244B246F240B7050100CD
:10FB3C0025469385258B05616FF06FFDF24062447D
:10FB4C000945056182800945828089471145639B7F
:10FB5C00F60083471600834606000145A207D58FA1
:10FB6C002310F7008280011122CC2A84C84106CED2
:10FB7C00AE86014719C52EC68545EFD05FF2B24659
:10FB8C002A8722856244F240B70501002D469385F1
:10FB9C00E58C05616FF0AFF711456393A6028347BF
:10FBAC001600834606000145A207D58F2310F700E7
:10FBBC008347360083462600A207D58F2311F70012
:10FBCC008280011122CC2A84C84106CEAE8611C592
:10FBDC002EC68545EFD0BFECB2462A8722856244FB
:10FBEC00F240B705010035469385458D05616FF0F0
:10FBFC000FF293F71600114589EB89476387F600DE
:10FC0C0085822312D70010C301458280011122CCBA
:10FC1C002A84C84106CE15C12EC68545EFD03FE8D3
:10FC2C002A8722856244B246F240B70501003D4660
:10FC3C009385A58D05616FF08FEDF2406244094507
:10FC4C000561828083D705008DCF011122CC2A84D7
:10FC5C00C84106CE15C12EC68945EFD05FE42A8770
:10FC6C0022856244B246F240B705010045469385B1
:10FC7C00058E05616FF0AFE9F240624409450561FC
:10FC8C00828009458280854763FCD7022304A70044
:10FC9C00A304B7008347160083450600A207CD8F47
:10FCAC002310F7009387E6FF2311F700894763863B
:10FCBC00F600090650C30145828023220700E5BFE8
:10FCCC0011458280014781464D4681456FF02FE4F6
:10FCDC008D47114563FBD702834716008345060009
:10FCEC00A207CD8F2310F7008347360083452600EB
:10FCFC00A207CD8F2311F7009387C6FF2312F700BD
:10FD0C006386A600110610C70145828023240700D4
:10FD1C00E5BF011122CC2A84884506CEAE8611C5DA
:10FD2C002EC69545EFD0BFD7B2462A8722856244AE
:10FD3C00F240B70501005D469385C58F05616FF0F4
:10FD4C000FDD854711456397F60083470600014593
:10FD5C002300F700828001478146654681456FF09C
:10FD6C000FDB011122CC2A84C84106CEAE86014796
:10FD7C0019C52EC68D45EFD09FD2B2462A87228553
:10FD8C006244F240B70501006D469385C59205614A
:10FD9C006FF08FCC011122CC2A84C84106CEAE86DE
:10FDAC00014719C52EC68D45EFD07FCFB2462A87A5
:10FDBC0022856244F240B705010075469385C592D1
:10FDCC0005616FF06FC9011106CE2EC6EF8070244D
:10FDDC0001C9B245F2400355250005616FC0503989
:10FDEC00F240494505618280B7270020A384078E25
:10FDFC00B72700202384078EB727002023A8078C61
:10FE0C00B727002023AA078CB727002023AC078C28
:10FE1C00B727002023AE078CB727002023A6078C1A
:10FE2C00B727002023A4078CB7270020239407AA08
:10FE3C0013064038938787AA2391C702717613075C
:10FE4C00400B130606B82391E7002392C7021167F3
:10FE5C001D46930600059305000A1305007D2392A9
:10FE6C00E7002393C70241470546130810F8239572
:10FE7C00E7002396E7002399E700239AE700239BEA
:10FE8C00E700239CE7002394E7022393B700239415
:10FE9C00B7002397D7002398D700239DA700239E54
:10FEAC000700239F0700239007022395C702239680
:10FEBC000703239707029308F0072398070223925E
:10FECC00E7042393E704239FE7042390E706239199
:10FEDC00E7062392E706239917031307C01C239AFE
:10FEEC00C702239BC702239C0702239D0702239E64
:10FEFC000702239F0702239007042391C70423942E
:10FF0C000704239507042396C7042397D704239843
:10FF1C00D7042399A704239A0704239B0704239C43
:10FF2C000704239DD704239ED7042393A706239469
:10FF3C00070623950706239607062397B7062398EB
:10FF4C00B70623990706239AE7067D57239B0706D6
:10FF5C00239007092391E7088280011126CAAA84FD
:10FF6C00214522CC06CE2E8432C636C43AC2EFD0FE
:10FF7C005FBD1DC9A24612473246930700FD230000
:10FF8C00F5009947A30095002301F5002303D50044
:10FF9C00A303E5002312C500AA8522856244F24022
:10FFAC00D24405616FD05FC8F2406244D24405610F
:10FFBC008280B727002023ACA78C8280B727002033
:10FFCC0023AEA78C8280011122CC4AC806CE26CA49
:10FFDC002A890144B30489006368B400F240624486
:10FFEC00D2444249056182802EC6EFD05FDF931761
:04FFFC000501C183B7
:020000021000EC
:10000000A183B2452380F4009307140093F7F70F00
:10001000850463F9B700CA9709042380A700137405
:10002000F40F7DBF3E847DBF411122C437240020E0
:10003000130484A803556400C16706C6FD17630F47
:10004000F500B727002003C687BCB725002093859D
:10005000058EEF80E05BFD572313F400B24022448D
:100060004101828009C925151375F50F1335850ED9
:100070001345150082800145828023900500C9C682
:10008000797122D426D24ECE52CC5AC806D64AD046
:1000900056CA5EC63684328AAE892A8B814463F39F
:1000A0004407B307940083C707001389140042096B
:1000B000939A070193DA0A011359090163840A0428
:1000C000CA976341FA04B307240183CB07005E8516
:1000D000513F0DC99387FAFF2390F90063906B039A
:1000E000130519002295B250225492540259F24934
:1000F000624AD24A424BB24B45618280D694C204D6
:10010000C18071BF0145C5B701458280011122CC74
:100110003724002026CA4AC84EC6930784A806CEB4
:100120002E89D0CB8CCBC8C7AA8441469305F00F4B
:100130004A859700FF1FE780C0268549130484A8DD
:10014000631935030848C145693541469305F00FE9
:1001500026859700FF1FE780C02405496315250306
:1001600048446244F240D2444249B249C145056123
:100170008DB5414681454A859700FF1FE780602283
:10018000E31535FDC1B74146814526859700FF1F20
:10019000E7802021E30625FDF2406244D244424933
:1001A000B24905618280411122C43724002026C251
:1001B0004AC0AE842A89130600028145130584A82B
:1001C00006C69700FF1FE780800B930784A8A381D2
:1001D0002701B7270020238697BCEFC0607C8547A6
:1001E00019C1814749452304F4A8B24022449244EE
:1001F000024941018280814781CD19C98547631B2E
:10020000F50083C7550093E707FCA382F5008547F7
:100210003E85828089476317F50083C7550093F7B1
:10022000F703E5B70D478547E314E5FE03C755001F
:100230001377F70313670704A382E500D1BF814753
:100240008DC105C103C755009306000C8547137780
:10025000070C6308D700930600048D476303D7009B
:1002600089473E858280411122C4005D06C626C2B0
:100270001DC8AA84085009C59700FF1FE78080EABF
:10028000485009C59700FF1FE780C0E9085409C519
:100290009700FF1FE78000E922859700FF1FE78096
:1002A00060E823AC0402B2402244924441018280BF
:1002B00019E9B727002083C7A7A891C737250020D1
:1002C0001305058C828037250020130505AA82803E
:1002D000B727002003C5A7A88280B727002003A561
:1002E00047A98280B727002003A587A98280B72766
:1002F000002083A7C7A988438280B727002093875F
:1003000087A8D44B9842050798C203C537009307C6
:10031000F00F6305F50091656FD09FB682800111E3
:1003200022CC06CE2E8432C6EF8000609147B245C3
:100330006310F502B727002083A7C78D95C303A3D9
:100340000700630F030022856244F24005610283C7
:10035000B727002083A7478D81C703A34700D5B7E0
:10036000F2406244054505618280011122CC2A8455
:100370000355450006CE26CA4AC84EC6EF80E0386F
:100380003DC92A89834405008349C500E93D4A8562
:10039000EF80B01803554400EF8040543729002007
:1003A0001309898E83470900B9CB639A9704B7274D
:1003B000002083C5978E2685293C19E1230009007A
:1003C00003554400EF8040569147631FF500B7275F
:1003D0000020938787A88356440003D7670063955E
:1003E000E6007D572393E700F2406244D24442493D
:1003F000B2490561828081499304F00F45B79307A4
:10040000F00FE38FF4FA834664000356440003457B
:1004100024004E87A685813E65B779715EC6AA8B9A
:100420002E8552CC56CA5AC806D622D426D24AD0D5
:100430004ECEAE8A328B368AEF80202D7DC1045D90
:100440002A89E5C09C50614599C3130540039C541B
:1004500081C751054205418163050A0071054205C6
:100460004181DC5081C75D0542054181EFD02FEE0F
:100470002A8445C9614681459700FF1FE78020E037
:10048000B727002083C987AD639409008349090019
:10049000930700FD2300F400A947A3007401230182
:1004A000F400230364018C502312540113058401CA
:1004B00091C908C47146930A44039700FF1FE7805F
:1004C00060D556858C5491C948C45146930A45015C
:1004D0009700FF1FE78000D45685630C0A0008C808
:1004E0007146D285930AC5019700FF1FE78080D22D
:1004F0005685CC5099C548C85D469700FF1FE780D8
:1005000060D1A2854E85EFD0EFF22254B2509254C2
:10051000F249624AD24A424BB24B4A85025945617E
:1005200099B3B250225492540259F249624AD24AC3
:10053000424BB24B4561828001114EC6AA892E857D
:100540004AC806CE22CC26CA2E89EF80001C21C9BB
:10055000B727002083C487AD99E08344050019457F
:10056000EFD0EFDE2A8405CD814519469700FF1FA5
:10057000E780E0D0930700FD2300F400B947A30013
:1005800034012301F40023122401A2856244F240C5
:100590004249B2492685D24405616FD0AFE9F240A5
:1005A0006244D2444249B2490561828039715ECECB
:1005B000AA8B2E8526DA4ED652D456D25AD006DED3
:1005C00022DC4AD8AE84328BB68A3A8ABE8942C6C9
:1005D000EF80A01321CD2A894145EFD04FD72A843F
:1005E00031C5414681459700FF1FE78040C9B727C5
:1005F000002003C587AD19E103450900930700FDFD
:100600002300F400BD472301F400B247A3007401A6
:100610002312940023046401A3045401230544011C
:10062000A30534015CC4A285EFD0CFE0F250625440
:10063000D2544259B259225A925A025BF24B21616A
:100640008280797126D2AA8439454AD04ECE06D608
:1006500022D42EC6B2893689EFD06FCF21C1B245E0
:100660009307000D2310F500B1472A842312B5002B
:100670002301F500CE85190519469700FF1FE78075
:1006800060B923062401A2852254B2500259F249CE
:1006900013F5F40F925445616FD0CFD9B250225464
:1006A00092540259F24945618280411126C2B72411
:1006B0000020938484A803C7340006C622C44AC01D
:1006C0009307F00F630CF7042A893945EFD02FC840
:1006D0002A8429C5930700FDB72500202300F500D3
:1006E000A300250123010500938505AA0D051946E0
:1006F0009700FF1FE78000B283D78400A28503C55F
:1007000034002315F40083C714002306F4002244A8
:10071000B2409244024941016FD0CFD1B24022444D
:10072000924402494101828001115AC02A8B31450D
:1007300026CA4EC652C456C206CE22CC4AC8AE8481
:10074000B28A368ABA89EFD08FC03DCD2A842685F9
:10075000EF70B07B11C50347C500A1476314F704D0
:10076000B727002003C9B7A8930700FD2300F400B2
:100770009D47A30064012301F40023129400231376
:1007800054012314440123153401A2856244F2402C
:10079000D244B249224A924A024B4A8542490561F3
:1007A0006FD04FC9B727002003C9D7BCE31E0BFA8F
:1007B000B727002083A707989C47DDD7CE865286AF
:1007C000D685268582974DB7F2406244D24442498D
:1007D000B249224A924A024B05618280011122CC21
:1007E0002A84214506CE2EC6EFD06FB621C1B24570
:1007F000930700FD2300F500C5472301F50083C7DB
:100800003500A301F50083D745002312F50083C707
:1008100065002303F50083C77500AA85A303F500CF
:1008200022856244F24005616FD0CFC0F24062443D
:1008300005618280397162CC2A8C594526DA4AD802
:100840004ED652D456D25AD05ECE06DE22DCAE84CC
:1008500032C636C4BA8B3E8BC28A468A835901049B
:1008600003494104EFD0AFAE25C93246930700FDDE
:10087000A2462300F5009547A301C500A30085010A
:100880002301F5002A8419461105A9C2B6859700EF
:10089000FF1FE780209823066401230A2401231503
:1008A0007401231754012318440123193401A2852C
:1008B0006254F2504259B259225A925A025BF24B98
:1008C000624C2685D25421616FD0CFB68145970006
:1008D000FF1FE780C09AC1B7F2506254D254425908
:1008E000B259225A925A025BF24B624C21618280C9
:1008F000411122C437240020130484A88347240014
:1009000006C626C28DCBB7240020AA8519461385BA
:10091000048C9700FF1FE780E08F03452400938538
:10092000048CEFF05F8D2244B2401385048C924416
:1009300041016FC0A007B2402244924401454101E9
:100940008280411126C2B7240020938784A806C65E
:1009500022C44AC003C737009307F00F938484A8CA
:100960006304F7042A892945EFD06F9E2A840DCDB0
:10097000930700FD2300F500A147A30025012301F3
:10098000F50083C72400B72500209385058CA301BB
:10099000F500194611059700FF1FE780A08703C5E2
:1009A0003400A285EFD00FA903C724008D4763113F
:1009B000F702B727002083A7878D99CB03A3870071
:1009C000630803002244B240924402494101028379
:1009D000B24022449244024941018280797122D47A
:1009E00006D626D24AD04ECE52CC56CA09445DCD48
:1009F0002A8903550500AE895144EF701051AA842D
:100A000055C537270020930787BC83C74700854615
:100A1000BA8AFD1793F7F70F494463F9F6080347BD
:100A2000C500A1476314F700639209089C5C454424
:100A3000B5EF9165938545711305C00297F0FE1FD0
:100A4000E780406088DC2A8A4D442DC11306C0022D
:100A500081459700FF1FE780808283570900930636
:100A60004A0036852311FA0071469305490036C6BF
:100A700097F0FE1FE780007A89472300FA0003C53C
:100A8000C400B2460356090083C58ABC61151335FC
:100A90001500EF80F0792A8463860900CE852685CB
:100AA000EF80405701C42685EFF0EFFB2285B2505E
:100AB000225492540259F249624AD24A45618280D4
:100AC000B727002083C7C7BC0547FD1793F7F70F6B
:100AD000637AF708894741CA011122CC26CA4AC85D
:100AE0004EC652C406CEAA89368AB2842E89EF70C9
:100AF000D0412A84D14739C9485509C597F0FE1F0E
:100B0000E7804062F145268597F0FE1FE780C07CB4
:100B100048D4CD4705CD8346C40021478147639F14
:100B2000E600630D0A000347A5010356050193067D
:100B30002501AA854E85EF808055AA87034744008A
:100B4000630F0900136767002302E400F240624468
:100B5000D2444249B249224A3E85056182801367E8
:100B60004700DDB7C9473E8582809307000463EBE9
:100B7000A700B7270020938787AA06053E9503554F
:100B80000500828041657D158280011122CC2A8476
:100B90002E8526CA06CEAE84EF7030371DCDB747FE
:100BA0000F009387F723094563E4870281450A858F
:100BB000414697F0FE1FE780806CA68523108100D8
:100BC0000A85418023018100A3010100EF80F045E7
:100BD000F2406244D244056182804945D5BFB727BF
:100BE00000202385A7BC82806F80B05E797152CCD3
:100BF0002A8A328522D426D24AD04ECE56CA5AC824
:100C00005EC606D662C4AE8BB28A368BBA843E8983
:100C1000C2894684EF70702F15C92A8C63140A02AA
:100C200013774B008347450015CF93E72701230235
:100C3000FC008DEC631C0902639A090205E8ED9B38
:100C40002302FC00832B8C0363910B08B2502254C7
:100C500092540259F249624AD24A424BB24B224C58
:100C600045618280F59B93E70701D1B793E7470081
:100C70002302FC0001CC1C484146A2852324FC022F
:100C800013058C0197F0FE1FE780C05863930B0299
:100C9000D5D80325CC0209C597F0FE1FE780804810
:100CA000F145268597F0FE1FE78000632326AC02FE
:100CB00051BFE30909F80325CC0209C597F0FE1FCF
:100CC000E7804046F1454A85F1BF9DC483A70B02EA
:100CD00099EB916593853571714597F0FE1FE7801B
:100CE000603623A0AB0203A50B0219C57146A68589
:100CF00097F0FE1FE78000526388090283A74B022A
:100D000099EB9165938525715D4597F0FE1FE7800E
:100D1000603323A2AB0203A54B0219C55D46CE8505
:100D200097F0FE1FE780004F1DC483A78B0299EB4D
:100D3000916593851571514597F0FE1FE7808030CE
:100D400023A4AB0203A58B0219C55146A28597F0D7
:100D5000FE1FE780204C2254B2509254F249B24B0D
:100D6000224CCA865A860259424BD6855285D24AAF
:100D7000624A45616FF06FEA011126CA52C406CE7D
:100D800022CC4AC84EC62A8AAE84EF70101825C5F8
:100D9000AA893945EFC0BFDB2A8431CDB7270020AF
:100DA00003C987AD6314090003C909009307000D47
:100DB0002310F400AD472301F40093856900130567
:100DC0003400194697F0FE1FE780C04493F71400E3
:100DD000858085882306F400A3069400231544012A
:100DE000A2856244F240D244B249224A4A8542492D
:100DF00005616FC03FE4F2406244D2444249B249C7
:100E0000224A0561828001114EC652C456C206CEE6
:100E100022CC26CA4AC8AA8A2E8AB289EF70F00E5E
:100E20002DCD2A891305C002EFC07FD22A8435C593
:100E3000B727002083C487AD99E083440900930756
:100E4000000D2310F400E9472301F4009305690025
:100E500013053400194697F0FE1FE780A03BD285AA
:100E6000231554011305C400414697F0FE1FE78087
:100E7000603ACE851305C401414697F0FE1FE78016
:100E80006039A2856244F2404249B249224A924AFC
:100E90002685D24405616FC0FFD9F2406244D24436
:100EA0004249B249224A924A05618280411122C4D4
:100EB000372400201304848C084006C619C597F017
:100EC000FE1FE780202623200400B2402244410177
:100ED0008280011106CE22CC26CA4AC82EC6EF70E7
:100EE000D00239CDB245B727002003C987AD0CD554
:100EF000AA8463140900034905004145EFC03FC5BA
:100F00002A841DCD9307000D2310F500A54723016A
:100F1000F50083C75400938564001105A30FF5FE07
:100F2000194697F0FE1FE780E02E9C54A285F24000
:100F30005CC46244D2444A85424905616FC09FCF78
:100F4000F2406244D2444249056182801D71A2CCC4
:100F500086CE2A842EC6EF70407B05CD8346C50021
:100F60001147AA8749456392E6029C5FB24599C33F
:100F700083C56701B7B601002308B1009386E69DDB
:100F8000100889452285EF70B07FF64066442561E0
:100F900082805145DDBFB727002083C7C7BC054706
:100FA000FD1793F7F70F637AF704894721CA4111B8
:100FB00022C426C24AC006C6B2842E89EF70E074ED
:100FC0002A84D14705C5630809008347450093E794
:100FD00027002302F5004146A6851305840197F0FA
:100FE000FE1FE78020239C481CD48147B240224446
:100FF000924402493E8541018280C9473E858280F4
:10100000797122D406D62A842EC6EF70007001CDE5
:10101000B2452285230EB1006C08EF70307CB250CF
:101020002254456182805145DDBF6F70B004C167B5
:101030001387E7FF6395E502B727002083A7478D55
:1010400091EB494582804945B2402244924402498D
:101050004101828003A30700E30503FE02834111DF
:1010600022C426C24AC006C6FD172A892E84B2842D
:10107000639AF502B727002083A7478D91CF9C4341
:1010800081CF829711E9B72700202384278FB727C4
:101090000020A384978E4DBFA6854A85EFE07FD3BD
:1010A00045F5D5B72E85EF70406651DD83470500C5
:1010B0000D45E39B27F922852244B2400249A685CB
:1010C000924441016FB0900B9307000463E2A706BE
:1010D0004111C16722C406C626C2FD172A840945EC
:1010E0006382F502C547AE846313F4022E85EFB028
:1010F000701037250020130585AA06042A942310B2
:1011000094000145B24022449244410182809307F9
:10111000A0036316F4002E85EFB01007D9BF930724
:10112000B003E318F4FC13F5F50FEFB03006D1B7B8
:1011300009458280011106CE2AC6EFE0BFCBEF1031
:10114000C01CEFB04122B7270020938787A8130760
:1011500000F02391E70023820700B72700203245E3
:10116000138787BCFD562301D700F2402384A7BC18
:10117000954505616F507067597193970501A6D227
:1011800086D6A2D4CAD0CECED2CCD6CADAC8DEC6D3
:10119000E2C4E6C2EAC06EDEC187AE8463D3075202
:1011A00037240020034584BC37290020372A00203B
:1011B000EFC07FA0AA8C22CCB72A0020B72B00203A
:1011C000130489A8372C002063930C022165258D18
:1011D000B650265496540659F649664AD64A464BA6
:1011E000B64B264C964C064DF25D6561828083C7F6
:1011F0000C001307200A639CE7008349340003D5E1
:101200002C00C1656686FD15EFF06F919DA26247C7
:10121000130787BC83492700130710096398E71653
:1012200083C71C001547639FE7006685EFF0EF93C7
:101230006685EFC0FF8CE24703C587BCEFC0BF9750
:10124000AA8C59B73947639BE71603D54C008567CD
:10125000A5076316F50483A58C0003CB0500631D69
:101260000B00850591C9372500201946130505AAED
:1012700097F0FE1FE78000FA034789A885476317A8
:10128000F71063080B00230409A85A85EFF0EFC19B
:1012900045B789472304F9A8EFB0007151BF8967AA
:1012A00013872700631CE50403AB8C0063000B0E5F
:1012B00083470B0089EF83472B0003471B00A207DE
:1012C000D98F2314F40083473B00A300F4000347A5
:1012D00089A88947631CF70A83470B0091C7230439
:1012E00009A803450B005DB783451400035584002E
:1012F0008D472304F9A8EF505052E5B795076319BD
:10130000F50083A78C0003C50700EFF08FE30DB74E
:10131000F9771387A7FF2A9742074183914663F124
:10132000E6049387A7FCAA97C207C183714763713C
:10133000F70289671387B7006310E50483A70A8D56
:10134000E38807EE9C43E685E38407EE829715A0C9
:10135000370700181307F770B357F700858BA9CB31
:1013600083278A8DE38607EC9C43E38307EC66853D
:101370008297E31F05EA19A81387C7006311E502E6
:1013800083A78C0083C70700E38407EA9307F00F65
:10139000E380F9EAE6854E85EFC0DF8969BDB907CC
:1013A0006318F50083274C8DE38407E8DC4361BFB5
:1013B000896793871704E303F5F8C9BF3D4763992D
:1013C000E70403D54C0089671387D700E30CE5FCDD
:1013D00013879701E308E5FCCD07E319F5FA0357F6
:1013E0006400C167FD17631DF70083274C8DE381FF
:1013F00007E4DC43E38E07E20965E6854D05B9B7EE
:10140000B727002083A7C78DE38407E29C43DDB79D
:101410001307E003E39CE7F683C72C0005476398B6
:10142000E70E83C76C0037270020930D878CE1E718
:1014300083A70D00D5CF03CB0700A14903C57C00CE
:10144000138D8C00EA85EFE09FDF83C74C01A383F7
:10145000AC0083D80C0103D8EC0003D74C002A86DB
:1014600003C53C003EC283D72C01EA86DA853EC024
:10147000CE87EFF02FBC83C73C0095E7DD4783D8CC
:101480000C0103D8EC0083C67C0083D54C003EC21F
:1014900083D72C016A873EC0CE8705465A85EF70F8
:1014A000A05FA381AC0083A70D0081C71145EFF0B9
:1014B000FF9F138B8B8E03450B00E30B05D6B727DD
:1014C000002083C5978EEFE0DF90E30305D683C647
:1014D0003C0093071003638AF60003D64C00834553
:1014E0000B004E873685EFE01FA823840B8E89B34F
:1014F000034B340099B783278A8D034B34009149FD
:1015000095DFDC4385DF81450145829705BF29478B
:101510006398E70A83C76C0037270020930D878CF8
:10152000A5EF83A70D00B5C703CB0700A14903C5ED
:101530007C0093868C0093772500BDCB1376150035
:10154000138E4C0183C70C0283D8CC0103D8AC01A5
:1015500003D74C0003C53C003EC283D7EC01DA85BB
:1015600072CE3EC0CE87EFF0EFAC83C73C00724E28
:101570009DFBDD4783D8CC0103D8AC0183C67C003A
:1015800083D54C003EC283D7EC0172873EC0CE8724
:1015900029B7034B340059BF83278A8D034B34008E
:1015A0009149D1D7DC43C1D781450145829741B7E5
:1015B000B68536CEEFE0BFC8F2462A86368E59B7DA
:1015C0000947639CE70083A70A8DE38307C6DC43D2
:1015D000E38007C666858297A1B92D476398E70027
:1015E00083A70A8DE38607C49C47DDB70D47639741
:1015F000E70066868D4503D54C0039B119476395E0
:10160000E7069305610213051031EFA0715E2C10FF
:1016100013052031EFA0D15D03D66C008357810202
:1016200003D54C0063E8C70083D68C0003576102E2
:1016300063F7E60093050002EFB0C03AD5BE6374CD
:10164000E6002393EC0063F4D7002394FC0003D757
:10165000CC0083D6AC0003D68C0083D56C00014847
:101660008147EFB0E037E9B61D47E381E7D2314764
:101670006395E7006686B145BDBF35476398E700CF
:1016800083A70A8DE38607BADC4799B74947639D6C
:10169000E70083278A8DE38B07CEDC43E38807CE00
:1016A000814505458297DDB14D47E391E7CE83271C
:1016B0008A8DE38D07CCDC43E38A07CCE6850945B8
:1016C000D5B793F7150089CFB727002083A7078DDB
:1016D00089C7DC4399C30145829713C51400CDBC6B
:1016E00093F7250091CFB727002083A7878D91C757
:1016F000DC4381C781450545829713C52400C9BCD9
:1017000093F745000145E38507ACB727002083A781
:10171000C78C37240020130484A891CF8547230267
:10172000F400B727002083A7878D91C7DC4381C7CA
:1017300081450545829748442C10EF70707B281036
:10174000EFF00F9BB727002083D7A7AC81CF1306FC
:1017500000643386C702B727002003C587BC9145C4
:10176000EFC03F8813C54400A5B4411122C43724FB
:1017700000200325C48C06C619C597F0FE1FE7801C
:10178000609A2326048CB240224441018280597120
:10179000A2D4372400208327C48C86D6A6D2CAD0F0
:1017A000CECED2CCD6CADAC80545638D070C9305D8
:1017B000F1041305F041EF9041259305F104130561
:1017C000F041EF908124B7270020938787A883C733
:1017D00027000347F104B337F00011C3890703273B
:1017E000C48C3EDE0345370093054700EFE0BFA001
:1017F0000327C48C2ADC0D45834527002EDAEFF041
:10180000CFB62AD81145EFF04FB60324C48C2AD6A0
:1018100065450347A400034BB4003AD4EFF0EFB49E
:10182000AA846945EFF06FB42A897145EFF0EFB3F0
:10183000AA896D45EFF06FB32A8A7545EFF0EFB2D4
:10184000AA8A7945EFF06FB2E2046258F257225744
:10185000B2564256D2551375F50F93FAFA0F137A12
:10186000FA0F93F9F90F1379F90FE1842ACC56CACC
:1018700052C84EC64AC426C25AC093084400054501
:10188000EFB00018B650265496540659F649664AE9
:10189000D64A464B65618280011122CC06CE26CA0B
:1018A0008D472E846315F50603C73500B724002045
:1018B000E94703D54500938484A86316F70083D7CE
:1018C00064006382A706EF60506409C58357640013
:1018D0002317F5000357A4008356840003566400C1
:1018E0008355440003453400EFE01FE403574400F0
:1018F00083D764006309F7008547F2406244D2440D
:101900003E8505618280FD572393F400F5B7896712
:10191000CD07631DF50083C7250031476385E700C8
:101920004547E39BE7FCEFE02FF0F9B7B1476319B8
:10193000F500B727002003C5D7BCEFE03FEA6DBF35
:1019400041677D178147E31AE5FA83C65500494789
:10195000E395E6FA83C545000355240030002314BF
:101960000100EF60304749BF411122C437240020F5
:101970008347A48E26C206C64AC01307E00FAE8472
:101980006386E7041307F00F1304A48E6387E7024E
:101990001145EFC0CF9B15C1930700FD2300F50053
:1019A00089472301F5008547A3009500A301F500B1
:1019B000AA8503450400EFC0EFA7F9572300F40000
:1019C000B240224492440249410182802A89114551
:1019D000EFC0EF9775D5930700FD2300F500894709
:1019E0002301F500A3009500A30125012244B72798
:1019F0000020B24092440249AA8503C5B78E410136
:101A00006FC04FA379714AD0372900208327C98C32
:101A100022D406D626D24ECE52CC56CA4544D5EF55
:101A2000B7240020938784BC83C747004944958B23
:101A3000CDC7B72700202E8A9165A385A78EAA89D6
:101A400093857571314597E0FE1FE780A05F2326DF
:101A5000A98C4D4459C123003501A3000500294636
:101A6000D285090597E0FE1FE780C07A8327C98CDD
:101A7000914603C7270063EDE60835EB4D47238108
:101A8000E70003C72700136707012381E7009305D9
:101A900071001305F041EF80517783477100F1EB3E
:101AA000B727002003C7A7A88D476314F70CEFE002
:101AB000DF822C00EF70D0432800EFE07FE3454544
:101AC000EFF0AF8A014411C9130600643306C50262
